{
  "abi": [
    {
      "inputs": [],
      "stateMutability": "nonpayable",
      "type": "constructor"
    },
    {
      "anonymous": false,
      "inputs": [
        {
          "indexed": true,
          "internalType": "address",
          "name": "owner",
          "type": "address"
        },
        {
          "indexed": true,
          "internalType": "address",
          "name": "approved",
          "type": "address"
        },
        {
          "indexed": true,
          "internalType": "uint256",
          "name": "tokenId",
          "type": "uint256"
        }
      ],
      "name": "Approval",
      "type": "event"
    },
    {
      "anonymous": false,
      "inputs": [
        {
          "indexed": true,
          "internalType": "address",
          "name": "owner",
          "type": "address"
        },
        {
          "indexed": true,
          "internalType": "address",
          "name": "operator",
          "type": "address"
        },
        {
          "indexed": false,
          "internalType": "bool",
          "name": "approved",
          "type": "bool"
        }
      ],
      "name": "ApprovalForAll",
      "type": "event"
    },
    {
      "anonymous": false,
      "inputs": [
        {
          "indexed": true,
          "internalType": "address",
          "name": "previousOwner",
          "type": "address"
        },
        {
          "indexed": true,
          "internalType": "address",
          "name": "newOwner",
          "type": "address"
        }
      ],
      "name": "OwnershipTransferred",
      "type": "event"
    },
    {
      "anonymous": false,
      "inputs": [
        {
          "indexed": true,
          "internalType": "address",
          "name": "from",
          "type": "address"
        },
        {
          "indexed": true,
          "internalType": "address",
          "name": "to",
          "type": "address"
        },
        {
          "indexed": true,
          "internalType": "uint256",
          "name": "tokenId",
          "type": "uint256"
        }
      ],
      "name": "Transfer",
      "type": "event"
    },
    {
      "inputs": [
        {
          "internalType": "address",
          "name": "to",
          "type": "address"
        },
        {
          "internalType": "uint256",
          "name": "tokenId",
          "type": "uint256"
        }
      ],
      "name": "approve",
      "outputs": [],
      "stateMutability": "nonpayable",
      "type": "function"
    },
    {
      "inputs": [
        {
          "internalType": "address",
          "name": "owner",
          "type": "address"
        }
      ],
      "name": "balanceOf",
      "outputs": [
        {
          "internalType": "uint256",
          "name": "",
          "type": "uint256"
        }
      ],
      "stateMutability": "view",
      "type": "function"
    },
    {
      "inputs": [],
      "name": "cost",
      "outputs": [
        {
          "internalType": "uint256",
          "name": "",
          "type": "uint256"
        }
      ],
      "stateMutability": "view",
      "type": "function"
    },
    {
      "inputs": [
        {
          "internalType": "uint256",
          "name": "tokenId",
          "type": "uint256"
        }
      ],
      "name": "getApproved",
      "outputs": [
        {
          "internalType": "address",
          "name": "",
          "type": "address"
        }
      ],
      "stateMutability": "view",
      "type": "function"
    },
    {
      "inputs": [],
      "name": "hiddenMetadataUri",
      "outputs": [
        {
          "internalType": "string",
          "name": "",
          "type": "string"
        }
      ],
      "stateMutability": "view",
      "type": "function"
    },
    {
      "inputs": [
        {
          "internalType": "address",
          "name": "owner",
          "type": "address"
        },
        {
          "internalType": "address",
          "name": "operator",
          "type": "address"
        }
      ],
      "name": "isApprovedForAll",
      "outputs": [
        {
          "internalType": "bool",
          "name": "",
          "type": "bool"
        }
      ],
      "stateMutability": "view",
      "type": "function"
    },
    {
      "inputs": [],
      "name": "maxMintAmountPerTx",
      "outputs": [
        {
          "internalType": "uint256",
          "name": "",
          "type": "uint256"
        }
      ],
      "stateMutability": "view",
      "type": "function"
    },
    {
      "inputs": [],
      "name": "maxSupply",
      "outputs": [
        {
          "internalType": "uint256",
          "name": "",
          "type": "uint256"
        }
      ],
      "stateMutability": "view",
      "type": "function"
    },
    {
      "inputs": [
        {
          "internalType": "uint256",
          "name": "_mintAmount",
          "type": "uint256"
        }
      ],
      "name": "mint",
      "outputs": [],
      "stateMutability": "payable",
      "type": "function"
    },
    {
      "inputs": [
        {
          "internalType": "uint256",
          "name": "_mintAmount",
          "type": "uint256"
        },
        {
          "internalType": "address",
          "name": "_receiver",
          "type": "address"
        }
      ],
      "name": "mintForAddress",
      "outputs": [],
      "stateMutability": "nonpayable",
      "type": "function"
    },
    {
      "inputs": [],
      "name": "name",
      "outputs": [
        {
          "internalType": "string",
          "name": "",
          "type": "string"
        }
      ],
      "stateMutability": "view",
      "type": "function"
    },
    {
      "inputs": [],
      "name": "owner",
      "outputs": [
        {
          "internalType": "address",
          "name": "",
          "type": "address"
        }
      ],
      "stateMutability": "view",
      "type": "function"
    },
    {
      "inputs": [
        {
          "internalType": "uint256",
          "name": "tokenId",
          "type": "uint256"
        }
      ],
      "name": "ownerOf",
      "outputs": [
        {
          "internalType": "address",
          "name": "",
          "type": "address"
        }
      ],
      "stateMutability": "view",
      "type": "function"
    },
    {
      "inputs": [],
      "name": "paused",
      "outputs": [
        {
          "internalType": "bool",
          "name": "",
          "type": "bool"
        }
      ],
      "stateMutability": "view",
      "type": "function"
    },
    {
      "inputs": [],
      "name": "renounceOwnership",
      "outputs": [],
      "stateMutability": "nonpayable",
      "type": "function"
    },
    {
      "inputs": [],
      "name": "revealed",
      "outputs": [
        {
          "internalType": "bool",
          "name": "",
          "type": "bool"
        }
      ],
      "stateMutability": "view",
      "type": "function"
    },
    {
      "inputs": [
        {
          "internalType": "address",
          "name": "from",
          "type": "address"
        },
        {
          "internalType": "address",
          "name": "to",
          "type": "address"
        },
        {
          "internalType": "uint256",
          "name": "tokenId",
          "type": "uint256"
        }
      ],
      "name": "safeTransferFrom",
      "outputs": [],
      "stateMutability": "nonpayable",
      "type": "function"
    },
    {
      "inputs": [
        {
          "internalType": "address",
          "name": "from",
          "type": "address"
        },
        {
          "internalType": "address",
          "name": "to",
          "type": "address"
        },
        {
          "internalType": "uint256",
          "name": "tokenId",
          "type": "uint256"
        },
        {
          "internalType": "bytes",
          "name": "_data",
          "type": "bytes"
        }
      ],
      "name": "safeTransferFrom",
      "outputs": [],
      "stateMutability": "nonpayable",
      "type": "function"
    },
    {
      "inputs": [
        {
          "internalType": "address",
          "name": "operator",
          "type": "address"
        },
        {
          "internalType": "bool",
          "name": "approved",
          "type": "bool"
        }
      ],
      "name": "setApprovalForAll",
      "outputs": [],
      "stateMutability": "nonpayable",
      "type": "function"
    },
    {
      "inputs": [
        {
          "internalType": "uint256",
          "name": "_cost",
          "type": "uint256"
        }
      ],
      "name": "setCost",
      "outputs": [],
      "stateMutability": "nonpayable",
      "type": "function"
    },
    {
      "inputs": [
        {
          "internalType": "string",
          "name": "_hiddenMetadataUri",
          "type": "string"
        }
      ],
      "name": "setHiddenMetadataUri",
      "outputs": [],
      "stateMutability": "nonpayable",
      "type": "function"
    },
    {
      "inputs": [
        {
          "internalType": "uint256",
          "name": "_maxMintAmountPerTx",
          "type": "uint256"
        }
      ],
      "name": "setMaxMintAmountPerTx",
      "outputs": [],
      "stateMutability": "nonpayable",
      "type": "function"
    },
    {
      "inputs": [
        {
          "internalType": "bool",
          "name": "_state",
          "type": "bool"
        }
      ],
      "name": "setPaused",
      "outputs": [],
      "stateMutability": "nonpayable",
      "type": "function"
    },
    {
      "inputs": [
        {
          "internalType": "bool",
          "name": "_state",
          "type": "bool"
        }
      ],
      "name": "setRevealed",
      "outputs": [],
      "stateMutability": "nonpayable",
      "type": "function"
    },
    {
      "inputs": [
        {
          "internalType": "string",
          "name": "_uriPrefix",
          "type": "string"
        }
      ],
      "name": "setUriPrefix",
      "outputs": [],
      "stateMutability": "nonpayable",
      "type": "function"
    },
    {
      "inputs": [
        {
          "internalType": "string",
          "name": "_uriSuffix",
          "type": "string"
        }
      ],
      "name": "setUriSuffix",
      "outputs": [],
      "stateMutability": "nonpayable",
      "type": "function"
    },
    {
      "inputs": [
        {
          "internalType": "bytes4",
          "name": "interfaceId",
          "type": "bytes4"
        }
      ],
      "name": "supportsInterface",
      "outputs": [
        {
          "internalType": "bool",
          "name": "",
          "type": "bool"
        }
      ],
      "stateMutability": "view",
      "type": "function"
    },
    {
      "inputs": [],
      "name": "symbol",
      "outputs": [
        {
          "internalType": "string",
          "name": "",
          "type": "string"
        }
      ],
      "stateMutability": "view",
      "type": "function"
    },
    {
      "inputs": [
        {
          "internalType": "uint256",
          "name": "_tokenId",
          "type": "uint256"
        }
      ],
      "name": "tokenURI",
      "outputs": [
        {
          "internalType": "string",
          "name": "",
          "type": "string"
        }
      ],
      "stateMutability": "view",
      "type": "function"
    },
    {
      "inputs": [],
      "name": "totalSupply",
      "outputs": [
        {
          "internalType": "uint256",
          "name": "",
          "type": "uint256"
        }
      ],
      "stateMutability": "view",
      "type": "function"
    },
    {
      "inputs": [
        {
          "internalType": "address",
          "name": "from",
          "type": "address"
        },
        {
          "internalType": "address",
          "name": "to",
          "type": "address"
        },
        {
          "internalType": "uint256",
          "name": "tokenId",
          "type": "uint256"
        }
      ],
      "name": "transferFrom",
      "outputs": [],
      "stateMutability": "nonpayable",
      "type": "function"
    },
    {
      "inputs": [
        {
          "internalType": "address",
          "name": "newOwner",
          "type": "address"
        }
      ],
      "name": "transferOwnership",
      "outputs": [],
      "stateMutability": "nonpayable",
      "type": "function"
    },
    {
      "inputs": [],
      "name": "uriSuffix",
      "outputs": [
        {
          "internalType": "string",
          "name": "",
          "type": "string"
        }
      ],
      "stateMutability": "view",
      "type": "function"
    },
    {
      "inputs": [
        {
          "internalType": "address",
          "name": "_owner",
          "type": "address"
        }
      ],
      "name": "walletOfOwner",
      "outputs": [
        {
          "internalType": "uint256[]",
          "name": "",
          "type": "uint256[]"
        }
      ],
      "stateMutability": "view",
      "type": "function"
    },
    {
      "inputs": [],
      "name": "withdraw",
      "outputs": [],
      "stateMutability": "nonpayable",
      "type": "function"
    }
  ],
  "bytecode": "600160085560c06040526005608081905264173539b7b760d91b60a09081526200002d9160099190620001fc565b50604051806080016040528060528152602001620025b36052913980516200005e91600a91602090910190620001fc565b50662386f26fc10000600b556101f4600c556005600d55600f805461ffff191660011790553480156200009057600080fd5b50604080518082018252600681526529b430b6b0b760d11b60208083019182528351808501909452600484526329a426a760e11b908401528151919291620000db91600091620001fc565b508051620000f1906001906020840190620001fc565b5050506200010e620001086200012e60201b60201c565b62000132565b604080516020810190915260008152620001289062000184565b620002de565b3390565b600680546001600160a01b038381166001600160a01b0319831681179093556040519116919082907f8be0079c531659141344cd1fd0a4f28419497f9722a3daafe3b4186f6b6457e090600090a35050565b6006546001600160a01b03163314620001e35760405162461bcd60e51b815260206004820181905260248201527f4f776e61626c653a2063616c6c6572206973206e6f7420746865206f776e6572604482015260640160405180910390fd5b8051620001f890600a906020840190620001fc565b5050565b8280546200020a90620002a2565b90600052602060002090601f0160209004810192826200022e576000855562000279565b82601f106200024957805160ff191683800117855562000279565b8280016001018555821562000279579182015b82811115620002795782518255916020019190600101906200025c565b50620002879291506200028b565b5090565b5b808211156200028757600081556001016200028c565b600181811c90821680620002b757607f821691505b602082108103620002d857634e487b7160e01b600052602260045260246000fd5b50919050565b6122c580620002ee6000396000f3fe6080604052600436106102045760003560e01c80636352211e11610118578063a45ba8e7116100a0578063d5abeb011161006f578063d5abeb01146105a9578063e0a80853146105bf578063e985e9c5146105df578063efbd73f414610628578063f2fde38b1461064857600080fd5b8063a45ba8e714610534578063b071401b14610549578063b88d4fde14610569578063c87b56dd1461058957600080fd5b80638da5cb5b116100e75780638da5cb5b146104b857806394354fd0146104d657806395d89b41146104ec578063a0712d6814610501578063a22cb4651461051457600080fd5b80636352211e1461044357806370a0823114610463578063715018a6146104835780637ec4a6591461049857600080fd5b806323b872dd1161019b57806344a0d68a1161016a57806344a0d68a146103b55780634fdd43cb146103d557806351830227146103f55780635503a0e8146104145780635c975abb1461042957600080fd5b806323b872dd146103335780633ccfd60b1461035357806342842e0e14610368578063438b63001461038857600080fd5b806313faede6116101d757806313faede6146102ba57806316ba10e0146102de57806316c38b3c146102fe57806318160ddd1461031e57600080fd5b806301ffc9a71461020957806306fdde031461023e578063081812fc14610260578063095ea7b314610298575b600080fd5b34801561021557600080fd5b50610229610224366004611c11565b610668565b60405190151581526020015b60405180910390f35b34801561024a57600080fd5b506102536106ba565b6040516102359190611c86565b34801561026c57600080fd5b5061028061027b366004611c99565b61074c565b6040516001600160a01b039091168152602001610235565b3480156102a457600080fd5b506102b86102b3366004611cce565b6107e6565b005b3480156102c657600080fd5b506102d0600b5481565b604051908152602001610235565b3480156102ea57600080fd5b506102b86102f9366004611d84565b6108fb565b34801561030a57600080fd5b506102b8610319366004611ddd565b61093c565b34801561032a57600080fd5b506102d0610979565b34801561033f57600080fd5b506102b861034e366004611df8565b610989565b34801561035f57600080fd5b506102b86109ba565b34801561037457600080fd5b506102b8610383366004611df8565b610a58565b34801561039457600080fd5b506103a86103a3366004611e34565b610a73565b6040516102359190611e4f565b3480156103c157600080fd5b506102b86103d0366004611c99565b610b53565b3480156103e157600080fd5b506102b86103f0366004611d84565b610b82565b34801561040157600080fd5b50600f5461022990610100900460ff1681565b34801561042057600080fd5b50610253610bbf565b34801561043557600080fd5b50600f546102299060ff1681565b34801561044f57600080fd5b5061028061045e366004611c99565b610c4d565b34801561046f57600080fd5b506102d061047e366004611e34565b610cc4565b34801561048f57600080fd5b506102b8610d4b565b3480156104a457600080fd5b506102b86104b3366004611d84565b610d81565b3480156104c457600080fd5b506006546001600160a01b0316610280565b3480156104e257600080fd5b506102d0600d5481565b3480156104f857600080fd5b50610253610dcd565b6102b861050f366004611c99565b610ddc565b34801561052057600080fd5b506102b861052f366004611e93565b610f3e565b34801561054057600080fd5b50610253610f49565b34801561055557600080fd5b506102b8610564366004611c99565b610f56565b34801561057557600080fd5b506102b8610584366004611ec6565b610f85565b34801561059557600080fd5b506102536105a4366004611c99565b610fbd565b3480156105b557600080fd5b506102d0600c5481565b3480156105cb57600080fd5b506102b86105da366004611ddd565b611141565b3480156105eb57600080fd5b506102296105fa366004611f42565b6001600160a01b03918216600090815260056020908152604080832093909416825291909152205460ff1690565b34801561063457600080fd5b506102b8610643366004611f6c565b611185565b34801561065457600080fd5b506102b8610663366004611e34565b61126b565b60006001600160e01b031982166380ac58cd60e01b148061069957506001600160e01b03198216635b5e139f60e01b145b806106b457506301ffc9a760e01b6001600160e01b03198316145b92915050565b6060600080546106c990611f8f565b80601f01602080910402602001604051908101604052809291908181526020018280546106f590611f8f565b80156107425780601f1061071757610100808354040283529160200191610742565b820191906000526020600020905b81548152906001019060200180831161072557829003601f168201915b5050505050905090565b6000818152600260205260408120546001600160a01b03166107ca5760405162461bcd60e51b815260206004820152602c60248201527f4552433732313a20617070726f76656420717565727920666f72206e6f6e657860448201526b34b9ba32b73a103a37b5b2b760a11b60648201526084015b60405180910390fd5b506000908152600460205260409020546001600160a01b031690565b60006107f182610c4d565b9050806001600160a01b0316836001600160a01b03160361085e5760405162461bcd60e51b815260206004820152602160248201527f4552433732313a20617070726f76616c20746f2063757272656e74206f776e656044820152603960f91b60648201526084016107c1565b336001600160a01b038216148061087a575061087a81336105fa565b6108ec5760405162461bcd60e51b815260206004820152603860248201527f4552433732313a20617070726f76652063616c6c6572206973206e6f74206f7760448201527f6e6572206e6f7220617070726f76656420666f7220616c6c000000000000000060648201526084016107c1565b6108f68383611303565b505050565b6006546001600160a01b031633146109255760405162461bcd60e51b81526004016107c190611fc9565b8051610938906009906020840190611b62565b5050565b6006546001600160a01b031633146109665760405162461bcd60e51b81526004016107c190611fc9565b600f805460ff1916911515919091179055565b600061098460075490565b905090565b6109933382611371565b6109af5760405162461bcd60e51b81526004016107c190611ffe565b6108f6838383611468565b6006546001600160a01b031633146109e45760405162461bcd60e51b81526004016107c190611fc9565b60006109f86006546001600160a01b031690565b6001600160a01b03164760405160006040518083038185875af1925050503d8060008114610a42576040519150601f19603f3d011682016040523d82523d6000602084013e610a47565b606091505b5050905080610a5557600080fd5b50565b6108f683838360405180602001604052806000815250610f85565b60606000610a8083610cc4565b905060008167ffffffffffffffff811115610a9d57610a9d611cf8565b604051908082528060200260200182016040528015610ac6578160200160208202803683370190505b509050600160005b8381108015610adf5750600c548211155b15610b49576000610aef83610c4d565b9050866001600160a01b0316816001600160a01b031603610b365782848381518110610b1d57610b1d61204f565b602090810291909101015281610b328161207b565b9250505b82610b408161207b565b93505050610ace565b5090949350505050565b6006546001600160a01b03163314610b7d5760405162461bcd60e51b81526004016107c190611fc9565b600b55565b6006546001600160a01b03163314610bac5760405162461bcd60e51b81526004016107c190611fc9565b805161093890600a906020840190611b62565b60098054610bcc90611f8f565b80601f0160208091040260200160405190810160405280929190818152602001828054610bf890611f8f565b8015610c455780601f10610c1a57610100808354040283529160200191610c45565b820191906000526020600020905b815481529060010190602001808311610c2857829003601f168201915b505050505081565b6000818152600260205260408120546001600160a01b0316806106b45760405162461bcd60e51b815260206004820152602960248201527f4552433732313a206f776e657220717565727920666f72206e6f6e657869737460448201526832b73a103a37b5b2b760b91b60648201526084016107c1565b60006001600160a01b038216610d2f5760405162461bcd60e51b815260206004820152602a60248201527f4552433732313a2062616c616e636520717565727920666f7220746865207a65604482015269726f206164647265737360b01b60648201526084016107c1565b506001600160a01b031660009081526003602052604090205490565b6006546001600160a01b03163314610d755760405162461bcd60e51b81526004016107c190611fc9565b610d7f6000611608565b565b6006546001600160a01b03163314610dab5760405162461bcd60e51b81526004016107c190611fc9565b6008546000908152600e60209081526040909120825161093892840190611b62565b6060600180546106c990611f8f565b80600081118015610def5750600d548111155b610e325760405162461bcd60e51b8152602060048201526014602482015273496e76616c6964206d696e7420616d6f756e742160601b60448201526064016107c1565b600c5481610e3f60075490565b610e499190612094565b1115610e8e5760405162461bcd60e51b81526020600482015260146024820152734d617820737570706c792065786365656465642160601b60448201526064016107c1565b600f5460ff1615610ee15760405162461bcd60e51b815260206004820152601760248201527f54686520636f6e7472616374206973207061757365642100000000000000000060448201526064016107c1565b81600b54610eef91906120ac565b341015610f345760405162461bcd60e51b8152602060048201526013602482015272496e73756666696369656e742066756e64732160681b60448201526064016107c1565b610938338361165a565b6109383383836116b0565b600a8054610bcc90611f8f565b6006546001600160a01b03163314610f805760405162461bcd60e51b81526004016107c190611fc9565b600d55565b610f8f3383611371565b610fab5760405162461bcd60e51b81526004016107c190611ffe565b610fb78484848461177e565b50505050565b6000818152600260205260409020546060906001600160a01b031661103c5760405162461bcd60e51b815260206004820152602f60248201527f4552433732314d657461646174613a2055524920717565727920666f72206e6f60448201526e3732bc34b9ba32b73a103a37b5b2b760891b60648201526084016107c1565b600f54610100900460ff1615156000036110e257600a805461105d90611f8f565b80601f016020809104026020016040519081016040528092919081815260200182805461108990611f8f565b80156110d65780601f106110ab576101008083540402835291602001916110d6565b820191906000526020600020905b8154815290600101906020018083116110b957829003601f168201915b50505050509050919050565b60006110ec6117b1565b9050600081511161110c576040518060200160405280600081525061113a565b80611116846117d1565b600960405160200161112a939291906120cb565b6040516020818303038152906040525b9392505050565b6006546001600160a01b0316331461116b5760405162461bcd60e51b81526004016107c190611fc9565b600f80549115156101000261ff0019909216919091179055565b816000811180156111985750600d548111155b6111db5760405162461bcd60e51b8152602060048201526014602482015273496e76616c6964206d696e7420616d6f756e742160601b60448201526064016107c1565b600c54816111e860075490565b6111f29190612094565b11156112375760405162461bcd60e51b81526020600482015260146024820152734d617820737570706c792065786365656465642160601b60448201526064016107c1565b6006546001600160a01b031633146112615760405162461bcd60e51b81526004016107c190611fc9565b6108f6828461165a565b6006546001600160a01b031633146112955760405162461bcd60e51b81526004016107c190611fc9565b6001600160a01b0381166112fa5760405162461bcd60e51b815260206004820152602660248201527f4f776e61626c653a206e6577206f776e657220697320746865207a65726f206160448201526564647265737360d01b60648201526084016107c1565b610a5581611608565b600081815260046020526040902080546001600160a01b0319166001600160a01b038416908117909155819061133882610c4d565b6001600160a01b03167f8c5be1e5ebec7d5bd14f71427d1e84f3dd0314c0f7b2291e5b200ac8c7c3b92560405160405180910390a45050565b6000818152600260205260408120546001600160a01b03166113ea5760405162461bcd60e51b815260206004820152602c60248201527f4552433732313a206f70657261746f7220717565727920666f72206e6f6e657860448201526b34b9ba32b73a103a37b5b2b760a11b60648201526084016107c1565b60006113f583610c4d565b9050806001600160a01b0316846001600160a01b031614806114305750836001600160a01b03166114258461074c565b6001600160a01b0316145b8061146057506001600160a01b0380821660009081526005602090815260408083209388168352929052205460ff165b949350505050565b826001600160a01b031661147b82610c4d565b6001600160a01b0316146114e35760405162461bcd60e51b815260206004820152602960248201527f4552433732313a207472616e73666572206f6620746f6b656e2074686174206960448201526839903737ba1037bbb760b91b60648201526084016107c1565b6001600160a01b0382166115455760405162461bcd60e51b8152602060048201526024808201527f4552433732313a207472616e7366657220746f20746865207a65726f206164646044820152637265737360e01b60648201526084016107c1565b611550600082611303565b6001600160a01b038316600090815260036020526040812080546001929061157990849061218e565b90915550506001600160a01b03821660009081526003602052604081208054600192906115a7908490612094565b909155505060008181526002602052604080822080546001600160a01b0319166001600160a01b0386811691821790925591518493918716917fddf252ad1be2c89b69c2b068fc378daa952ba7f163c4a11628f55a4df523b3ef91a4505050565b600680546001600160a01b038381166001600160a01b0319831681179093556040519116919082907f8be0079c531659141344cd1fd0a4f28419497f9722a3daafe3b4186f6b6457e090600090a35050565b60005b818110156108f657611673600780546001019055565b6116858361168060075490565b6118d2565b6001600860008282546116989190612094565b909155508190506116a88161207b565b91505061165d565b816001600160a01b0316836001600160a01b0316036117115760405162461bcd60e51b815260206004820152601960248201527f4552433732313a20617070726f766520746f2063616c6c65720000000000000060448201526064016107c1565b6001600160a01b03838116600081815260056020908152604080832094871680845294825291829020805460ff191686151590811790915591519182527f17307eab39ab6107e8899845ad3d59bd9653f200f220920489ca2b5937696c31910160405180910390a3505050565b611789848484611468565b611795848484846118ec565b610fb75760405162461bcd60e51b81526004016107c1906121a5565b6008546000908152600e602052604090208054606091906106c990611f8f565b6060816000036117f85750506040805180820190915260018152600360fc1b602082015290565b8160005b8115611822578061180c8161207b565b915061181b9050600a8361220d565b91506117fc565b60008167ffffffffffffffff81111561183d5761183d611cf8565b6040519080825280601f01601f191660200182016040528015611867576020820181803683370190505b5090505b84156114605761187c60018361218e565b9150611889600a86612221565b611894906030612094565b60f81b8183815181106118a9576118a961204f565b60200101906001600160f81b031916908160001a9053506118cb600a8661220d565b945061186b565b6109388282604051806020016040528060008152506119ed565b60006001600160a01b0384163b156119e257604051630a85bd0160e11b81526001600160a01b0385169063150b7a0290611930903390899088908890600401612235565b6020604051808303816000875af192505050801561196b575060408051601f3d908101601f1916820190925261196891810190612272565b60015b6119c8573d808015611999576040519150601f19603f3d011682016040523d82523d6000602084013e61199e565b606091505b5080516000036119c05760405162461bcd60e51b81526004016107c1906121a5565b805181602001fd5b6001600160e01b031916630a85bd0160e11b149050611460565b506001949350505050565b6119f78383611a20565b611a0460008484846118ec565b6108f65760405162461bcd60e51b81526004016107c1906121a5565b6001600160a01b038216611a765760405162461bcd60e51b815260206004820181905260248201527f4552433732313a206d696e7420746f20746865207a65726f206164647265737360448201526064016107c1565b6000818152600260205260409020546001600160a01b031615611adb5760405162461bcd60e51b815260206004820152601c60248201527f4552433732313a20746f6b656e20616c7265616479206d696e7465640000000060448201526064016107c1565b6001600160a01b0382166000908152600360205260408120805460019290611b04908490612094565b909155505060008181526002602052604080822080546001600160a01b0319166001600160a01b03861690811790915590518392907fddf252ad1be2c89b69c2b068fc378daa952ba7f163c4a11628f55a4df523b3ef908290a45050565b828054611b6e90611f8f565b90600052602060002090601f016020900481019282611b905760008555611bd6565b82601f10611ba957805160ff1916838001178555611bd6565b82800160010185558215611bd6579182015b82811115611bd6578251825591602001919060010190611bbb565b50611be2929150611be6565b5090565b5b80821115611be25760008155600101611be7565b6001600160e01b031981168114610a5557600080fd5b600060208284031215611c2357600080fd5b813561113a81611bfb565b60005b83811015611c49578181015183820152602001611c31565b83811115610fb75750506000910152565b60008151808452611c72816020860160208601611c2e565b601f01601f19169290920160200192915050565b60208152600061113a6020830184611c5a565b600060208284031215611cab57600080fd5b5035919050565b80356001600160a01b0381168114611cc957600080fd5b919050565b60008060408385031215611ce157600080fd5b611cea83611cb2565b946020939093013593505050565b634e487b7160e01b600052604160045260246000fd5b600067ffffffffffffffff80841115611d2957611d29611cf8565b604051601f8501601f19908116603f01168101908282118183101715611d5157611d51611cf8565b81604052809350858152868686011115611d6a57600080fd5b858560208301376000602087830101525050509392505050565b600060208284031215611d9657600080fd5b813567ffffffffffffffff811115611dad57600080fd5b8201601f81018413611dbe57600080fd5b61146084823560208401611d0e565b80358015158114611cc957600080fd5b600060208284031215611def57600080fd5b61113a82611dcd565b600080600060608486031215611e0d57600080fd5b611e1684611cb2565b9250611e2460208501611cb2565b9150604084013590509250925092565b600060208284031215611e4657600080fd5b61113a82611cb2565b6020808252825182820181905260009190848201906040850190845b81811015611e8757835183529284019291840191600101611e6b565b50909695505050505050565b60008060408385031215611ea657600080fd5b611eaf83611cb2565b9150611ebd60208401611dcd565b90509250929050565b60008060008060808587031215611edc57600080fd5b611ee585611cb2565b9350611ef360208601611cb2565b925060408501359150606085013567ffffffffffffffff811115611f1657600080fd5b8501601f81018713611f2757600080fd5b611f3687823560208401611d0e565b91505092959194509250565b60008060408385031215611f5557600080fd5b611f5e83611cb2565b9150611ebd60208401611cb2565b60008060408385031215611f7f57600080fd5b82359150611ebd60208401611cb2565b600181811c90821680611fa357607f821691505b602082108103611fc357634e487b7160e01b600052602260045260246000fd5b50919050565b6020808252818101527f4f776e61626c653a2063616c6c6572206973206e6f7420746865206f776e6572604082015260600190565b60208082526031908201527f4552433732313a207472616e736665722063616c6c6572206973206e6f74206f6040820152701ddb995c881b9bdc88185c1c1c9bdd9959607a1b606082015260800190565b634e487b7160e01b600052603260045260246000fd5b634e487b7160e01b600052601160045260246000fd5b60006001820161208d5761208d612065565b5060010190565b600082198211156120a7576120a7612065565b500190565b60008160001904831182151516156120c6576120c6612065565b500290565b6000845160206120de8285838a01611c2e565b8551918401916120f18184848a01611c2e565b8554920191600090600181811c908083168061210e57607f831692505b858310810361212b57634e487b7160e01b85526022600452602485fd5b80801561213f57600181146121505761217d565b60ff1985168852838801955061217d565b60008b81526020902060005b858110156121755781548a82015290840190880161215c565b505083880195505b50939b9a5050505050505050505050565b6000828210156121a0576121a0612065565b500390565b60208082526032908201527f4552433732313a207472616e7366657220746f206e6f6e20455243373231526560408201527131b2b4bb32b91034b6b83632b6b2b73a32b960711b606082015260800190565b634e487b7160e01b600052601260045260246000fd5b60008261221c5761221c6121f7565b500490565b600082612230576122306121f7565b500690565b6001600160a01b038581168252841660208201526040810183905260806060820181905260009061226890830184611c5a565b9695505050505050565b60006020828403121561228457600080fd5b815161113a81611bfb56fea26469706673582212206d611b1e7a4f911e3d5973336ddefaeeca96d9df62e2754e1f9d55db9ef754bf64736f6c634300080d003368747470733a2f2f697066732e696f2f697066732f516d50766643784c5a31734579773956487a34596746515070597157764a6b7843675155467235514363355545553f66696c656e616d65352e6a736f6e",
  "bytecodeSha1": "da39a3ee5e6b4b0d3255bfef95601890afd80709",
  "compiler": {
    "evm_version": "istanbul",
    "optimizer": {
      "enabled": true,
      "runs": 200
    },
    "version": "0.8.13+commit.abaa5c0e"
  },
  "contractName": "NFTProva3",
  "language": "Solidity",
  "natspec": {
    "kind": "dev",
    "methods": {
      "approve(address,uint256)": {
        "details": "See {IERC721-approve}."
      },
      "balanceOf(address)": {
        "details": "See {IERC721-balanceOf}."
      },
      "getApproved(uint256)": {
        "details": "See {IERC721-getApproved}."
      },
      "isApprovedForAll(address,address)": {
        "details": "See {IERC721-isApprovedForAll}."
      },
      "name()": {
        "details": "See {IERC721Metadata-name}."
      },
      "owner()": {
        "details": "Returns the address of the current owner."
      },
      "ownerOf(uint256)": {
        "details": "See {IERC721-ownerOf}."
      },
      "renounceOwnership()": {
        "details": "Leaves the contract without owner. It will not be possible to call `onlyOwner` functions anymore. Can only be called by the current owner. NOTE: Renouncing ownership will leave the contract without an owner, thereby removing any functionality that is only available to the owner."
      },
      "safeTransferFrom(address,address,uint256)": {
        "details": "See {IERC721-safeTransferFrom}."
      },
      "safeTransferFrom(address,address,uint256,bytes)": {
        "details": "See {IERC721-safeTransferFrom}."
      },
      "setApprovalForAll(address,bool)": {
        "details": "See {IERC721-setApprovalForAll}."
      },
      "supportsInterface(bytes4)": {
        "details": "See {IERC165-supportsInterface}."
      },
      "symbol()": {
        "details": "See {IERC721Metadata-symbol}."
      },
      "transferFrom(address,address,uint256)": {
        "details": "See {IERC721-transferFrom}."
      },
      "transferOwnership(address)": {
        "details": "Transfers ownership of the contract to a new account (`newOwner`). Can only be called by the current owner."
      }
    },
    "version": 1
  },
  "opcodes": "PUSH1 0x80 PUSH1 0x40 MSTORE PUSH1 0x4 CALLDATASIZE LT PUSH2 0x204 JUMPI PUSH1 0x0 CALLDATALOAD PUSH1 0xE0 SHR DUP1 PUSH4 0x6352211E GT PUSH2 0x118 JUMPI DUP1 PUSH4 0xA45BA8E7 GT PUSH2 0xA0 JUMPI DUP1 PUSH4 0xD5ABEB01 GT PUSH2 0x6F JUMPI DUP1 PUSH4 0xD5ABEB01 EQ PUSH2 0x5A9 JUMPI DUP1 PUSH4 0xE0A80853 EQ PUSH2 0x5BF JUMPI DUP1 PUSH4 0xE985E9C5 EQ PUSH2 0x5DF JUMPI DUP1 PUSH4 0xEFBD73F4 EQ PUSH2 0x628 JUMPI DUP1 PUSH4 0xF2FDE38B EQ PUSH2 0x648 JUMPI PUSH1 0x0 DUP1 REVERT JUMPDEST DUP1 PUSH4 0xA45BA8E7 EQ PUSH2 0x534 JUMPI DUP1 PUSH4 0xB071401B EQ PUSH2 0x549 JUMPI DUP1 PUSH4 0xB88D4FDE EQ PUSH2 0x569 JUMPI DUP1 PUSH4 0xC87B56DD EQ PUSH2 0x589 JUMPI PUSH1 0x0 DUP1 REVERT JUMPDEST DUP1 PUSH4 0x8DA5CB5B GT PUSH2 0xE7 JUMPI DUP1 PUSH4 0x8DA5CB5B EQ PUSH2 0x4B8 JUMPI DUP1 PUSH4 0x94354FD0 EQ PUSH2 0x4D6 JUMPI DUP1 PUSH4 0x95D89B41 EQ PUSH2 0x4EC JUMPI DUP1 PUSH4 0xA0712D68 EQ PUSH2 0x501 JUMPI DUP1 PUSH4 0xA22CB465 EQ PUSH2 0x514 JUMPI PUSH1 0x0 DUP1 REVERT JUMPDEST DUP1 PUSH4 0x6352211E EQ PUSH2 0x443 JUMPI DUP1 PUSH4 0x70A08231 EQ PUSH2 0x463 JUMPI DUP1 PUSH4 0x715018A6 EQ PUSH2 0x483 JUMPI DUP1 PUSH4 0x7EC4A659 EQ PUSH2 0x498 JUMPI PUSH1 0x0 DUP1 REVERT JUMPDEST DUP1 PUSH4 0x23B872DD GT PUSH2 0x19B JUMPI DUP1 PUSH4 0x44A0D68A GT PUSH2 0x16A JUMPI DUP1 PUSH4 0x44A0D68A EQ PUSH2 0x3B5 JUMPI DUP1 PUSH4 0x4FDD43CB EQ PUSH2 0x3D5 JUMPI DUP1 PUSH4 0x51830227 EQ PUSH2 0x3F5 JUMPI DUP1 PUSH4 0x5503A0E8 EQ PUSH2 0x414 JUMPI DUP1 PUSH4 0x5C975ABB EQ PUSH2 0x429 JUMPI PUSH1 0x0 DUP1 REVERT JUMPDEST DUP1 PUSH4 0x23B872DD EQ PUSH2 0x333 JUMPI DUP1 PUSH4 0x3CCFD60B EQ PUSH2 0x353 JUMPI DUP1 PUSH4 0x42842E0E EQ PUSH2 0x368 JUMPI DUP1 PUSH4 0x438B6300 EQ PUSH2 0x388 JUMPI PUSH1 0x0 DUP1 REVERT JUMPDEST DUP1 PUSH4 0x13FAEDE6 GT PUSH2 0x1D7 JUMPI DUP1 PUSH4 0x13FAEDE6 EQ PUSH2 0x2BA JUMPI DUP1 PUSH4 0x16BA10E0 EQ PUSH2 0x2DE JUMPI DUP1 PUSH4 0x16C38B3C EQ PUSH2 0x2FE JUMPI DUP1 PUSH4 0x18160DDD EQ PUSH2 0x31E JUMPI PUSH1 0x0 DUP1 REVERT JUMPDEST DUP1 PUSH4 0x1FFC9A7 EQ PUSH2 0x209 JUMPI DUP1 PUSH4 0x6FDDE03 EQ PUSH2 0x23E JUMPI DUP1 PUSH4 0x81812FC EQ PUSH2 0x260 JUMPI DUP1 PUSH4 0x95EA7B3 EQ PUSH2 0x298 JUMPI JUMPDEST PUSH1 0x0 DUP1 REVERT JUMPDEST CALLVALUE DUP1 ISZERO PUSH2 0x215 JUMPI PUSH1 0x0 DUP1 REVERT JUMPDEST POP PUSH2 0x229 PUSH2 0x224 CALLDATASIZE PUSH1 0x4 PUSH2 0x1C11 JUMP JUMPDEST PUSH2 0x668 JUMP JUMPDEST PUSH1 0x40 MLOAD SWAP1 ISZERO ISZERO DUP2 MSTORE PUSH1 0x20 ADD JUMPDEST PUSH1 0x40 MLOAD DUP1 SWAP2 SUB SWAP1 RETURN JUMPDEST CALLVALUE DUP1 ISZERO PUSH2 0x24A JUMPI PUSH1 0x0 DUP1 REVERT JUMPDEST POP PUSH2 0x253 PUSH2 0x6BA JUMP JUMPDEST PUSH1 0x40 MLOAD PUSH2 0x235 SWAP2 SWAP1 PUSH2 0x1C86 JUMP JUMPDEST CALLVALUE DUP1 ISZERO PUSH2 0x26C JUMPI PUSH1 0x0 DUP1 REVERT JUMPDEST POP PUSH2 0x280 PUSH2 0x27B CALLDATASIZE PUSH1 0x4 PUSH2 0x1C99 JUMP JUMPDEST PUSH2 0x74C JUMP JUMPDEST PUSH1 0x40 MLOAD PUSH1 0x1 PUSH1 0x1 PUSH1 0xA0 SHL SUB SWAP1 SWAP2 AND DUP2 MSTORE PUSH1 0x20 ADD PUSH2 0x235 JUMP JUMPDEST CALLVALUE DUP1 ISZERO PUSH2 0x2A4 JUMPI PUSH1 0x0 DUP1 REVERT JUMPDEST POP PUSH2 0x2B8 PUSH2 0x2B3 CALLDATASIZE PUSH1 0x4 PUSH2 0x1CCE JUMP JUMPDEST PUSH2 0x7E6 JUMP JUMPDEST STOP JUMPDEST CALLVALUE DUP1 ISZERO PUSH2 0x2C6 JUMPI PUSH1 0x0 DUP1 REVERT JUMPDEST POP PUSH2 0x2D0 PUSH1 0xB SLOAD DUP2 JUMP JUMPDEST PUSH1 0x40 MLOAD SWAP1 DUP2 MSTORE PUSH1 0x20 ADD PUSH2 0x235 JUMP JUMPDEST CALLVALUE DUP1 ISZERO PUSH2 0x2EA JUMPI PUSH1 0x0 DUP1 REVERT JUMPDEST POP PUSH2 0x2B8 PUSH2 0x2F9 CALLDATASIZE PUSH1 0x4 PUSH2 0x1D84 JUMP JUMPDEST PUSH2 0x8FB JUMP JUMPDEST CALLVALUE DUP1 ISZERO PUSH2 0x30A JUMPI PUSH1 0x0 DUP1 REVERT JUMPDEST POP PUSH2 0x2B8 PUSH2 0x319 CALLDATASIZE PUSH1 0x4 PUSH2 0x1DDD JUMP JUMPDEST PUSH2 0x93C JUMP JUMPDEST CALLVALUE DUP1 ISZERO PUSH2 0x32A JUMPI PUSH1 0x0 DUP1 REVERT JUMPDEST POP PUSH2 0x2D0 PUSH2 0x979 JUMP JUMPDEST CALLVALUE DUP1 ISZERO PUSH2 0x33F JUMPI PUSH1 0x0 DUP1 REVERT JUMPDEST POP PUSH2 0x2B8 PUSH2 0x34E CALLDATASIZE PUSH1 0x4 PUSH2 0x1DF8 JUMP JUMPDEST PUSH2 0x989 JUMP JUMPDEST CALLVALUE DUP1 ISZERO PUSH2 0x35F JUMPI PUSH1 0x0 DUP1 REVERT JUMPDEST POP PUSH2 0x2B8 PUSH2 0x9BA JUMP JUMPDEST CALLVALUE DUP1 ISZERO PUSH2 0x374 JUMPI PUSH1 0x0 DUP1 REVERT JUMPDEST POP PUSH2 0x2B8 PUSH2 0x383 CALLDATASIZE PUSH1 0x4 PUSH2 0x1DF8 JUMP JUMPDEST PUSH2 0xA58 JUMP JUMPDEST CALLVALUE DUP1 ISZERO PUSH2 0x394 JUMPI PUSH1 0x0 DUP1 REVERT JUMPDEST POP PUSH2 0x3A8 PUSH2 0x3A3 CALLDATASIZE PUSH1 0x4 PUSH2 0x1E34 JUMP JUMPDEST PUSH2 0xA73 JUMP JUMPDEST PUSH1 0x40 MLOAD PUSH2 0x235 SWAP2 SWAP1 PUSH2 0x1E4F JUMP JUMPDEST CALLVALUE DUP1 ISZERO PUSH2 0x3C1 JUMPI PUSH1 0x0 DUP1 REVERT JUMPDEST POP PUSH2 0x2B8 PUSH2 0x3D0 CALLDATASIZE PUSH1 0x4 PUSH2 0x1C99 JUMP JUMPDEST PUSH2 0xB53 JUMP JUMPDEST CALLVALUE DUP1 ISZERO PUSH2 0x3E1 JUMPI PUSH1 0x0 DUP1 REVERT JUMPDEST POP PUSH2 0x2B8 PUSH2 0x3F0 CALLDATASIZE PUSH1 0x4 PUSH2 0x1D84 JUMP JUMPDEST PUSH2 0xB82 JUMP JUMPDEST CALLVALUE DUP1 ISZERO PUSH2 0x401 JUMPI PUSH1 0x0 DUP1 REVERT JUMPDEST POP PUSH1 0xF SLOAD PUSH2 0x229 SWAP1 PUSH2 0x100 SWAP1 DIV PUSH1 0xFF AND DUP2 JUMP JUMPDEST CALLVALUE DUP1 ISZERO PUSH2 0x420 JUMPI PUSH1 0x0 DUP1 REVERT JUMPDEST POP PUSH2 0x253 PUSH2 0xBBF JUMP JUMPDEST CALLVALUE DUP1 ISZERO PUSH2 0x435 JUMPI PUSH1 0x0 DUP1 REVERT JUMPDEST POP PUSH1 0xF SLOAD PUSH2 0x229 SWAP1 PUSH1 0xFF AND DUP2 JUMP JUMPDEST CALLVALUE DUP1 ISZERO PUSH2 0x44F JUMPI PUSH1 0x0 DUP1 REVERT JUMPDEST POP PUSH2 0x280 PUSH2 0x45E CALLDATASIZE PUSH1 0x4 PUSH2 0x1C99 JUMP JUMPDEST PUSH2 0xC4D JUMP JUMPDEST CALLVALUE DUP1 ISZERO PUSH2 0x46F JUMPI PUSH1 0x0 DUP1 REVERT JUMPDEST POP PUSH2 0x2D0 PUSH2 0x47E CALLDATASIZE PUSH1 0x4 PUSH2 0x1E34 JUMP JUMPDEST PUSH2 0xCC4 JUMP JUMPDEST CALLVALUE DUP1 ISZERO PUSH2 0x48F JUMPI PUSH1 0x0 DUP1 REVERT JUMPDEST POP PUSH2 0x2B8 PUSH2 0xD4B JUMP JUMPDEST CALLVALUE DUP1 ISZERO PUSH2 0x4A4 JUMPI PUSH1 0x0 DUP1 REVERT JUMPDEST POP PUSH2 0x2B8 PUSH2 0x4B3 CALLDATASIZE PUSH1 0x4 PUSH2 0x1D84 JUMP JUMPDEST PUSH2 0xD81 JUMP JUMPDEST CALLVALUE DUP1 ISZERO PUSH2 0x4C4 JUMPI PUSH1 0x0 DUP1 REVERT JUMPDEST POP PUSH1 0x6 SLOAD PUSH1 0x1 PUSH1 0x1 PUSH1 0xA0 SHL SUB AND PUSH2 0x280 JUMP JUMPDEST CALLVALUE DUP1 ISZERO PUSH2 0x4E2 JUMPI PUSH1 0x0 DUP1 REVERT JUMPDEST POP PUSH2 0x2D0 PUSH1 0xD SLOAD DUP2 JUMP JUMPDEST CALLVALUE DUP1 ISZERO PUSH2 0x4F8 JUMPI PUSH1 0x0 DUP1 REVERT JUMPDEST POP PUSH2 0x253 PUSH2 0xDCD JUMP JUMPDEST PUSH2 0x2B8 PUSH2 0x50F CALLDATASIZE PUSH1 0x4 PUSH2 0x1C99 JUMP JUMPDEST PUSH2 0xDDC JUMP JUMPDEST CALLVALUE DUP1 ISZERO PUSH2 0x520 JUMPI PUSH1 0x0 DUP1 REVERT JUMPDEST POP PUSH2 0x2B8 PUSH2 0x52F CALLDATASIZE PUSH1 0x4 PUSH2 0x1E93 JUMP JUMPDEST PUSH2 0xF3E JUMP JUMPDEST CALLVALUE DUP1 ISZERO PUSH2 0x540 JUMPI PUSH1 0x0 DUP1 REVERT JUMPDEST POP PUSH2 0x253 PUSH2 0xF49 JUMP JUMPDEST CALLVALUE DUP1 ISZERO PUSH2 0x555 JUMPI PUSH1 0x0 DUP1 REVERT JUMPDEST POP PUSH2 0x2B8 PUSH2 0x564 CALLDATASIZE PUSH1 0x4 PUSH2 0x1C99 JUMP JUMPDEST PUSH2 0xF56 JUMP JUMPDEST CALLVALUE DUP1 ISZERO PUSH2 0x575 JUMPI PUSH1 0x0 DUP1 REVERT JUMPDEST POP PUSH2 0x2B8 PUSH2 0x584 CALLDATASIZE PUSH1 0x4 PUSH2 0x1EC6 JUMP JUMPDEST PUSH2 0xF85 JUMP JUMPDEST CALLVALUE DUP1 ISZERO PUSH2 0x595 JUMPI PUSH1 0x0 DUP1 REVERT JUMPDEST POP PUSH2 0x253 PUSH2 0x5A4 CALLDATASIZE PUSH1 0x4 PUSH2 0x1C99 JUMP JUMPDEST PUSH2 0xFBD JUMP JUMPDEST CALLVALUE DUP1 ISZERO PUSH2 0x5B5 JUMPI PUSH1 0x0 DUP1 REVERT JUMPDEST POP PUSH2 0x2D0 PUSH1 0xC SLOAD DUP2 JUMP JUMPDEST CALLVALUE DUP1 ISZERO PUSH2 0x5CB JUMPI PUSH1 0x0 DUP1 REVERT JUMPDEST POP PUSH2 0x2B8 PUSH2 0x5DA CALLDATASIZE PUSH1 0x4 PUSH2 0x1DDD JUMP JUMPDEST PUSH2 0x1141 JUMP JUMPDEST CALLVALUE DUP1 ISZERO PUSH2 0x5EB JUMPI PUSH1 0x0 DUP1 REVERT JUMPDEST POP PUSH2 0x229 PUSH2 0x5FA CALLDATASIZE PUSH1 0x4 PUSH2 0x1F42 JUMP JUMPDEST PUSH1 0x1 PUSH1 0x1 PUSH1 0xA0 SHL SUB SWAP2 DUP3 AND PUSH1 0x0 SWAP1 DUP2 MSTORE PUSH1 0x5 PUSH1 0x20 SWAP1 DUP2 MSTORE PUSH1 0x40 DUP1 DUP4 KECCAK256 SWAP4 SWAP1 SWAP5 AND DUP3 MSTORE SWAP2 SWAP1 SWAP2 MSTORE KECCAK256 SLOAD PUSH1 0xFF AND SWAP1 JUMP JUMPDEST CALLVALUE DUP1 ISZERO PUSH2 0x634 JUMPI PUSH1 0x0 DUP1 REVERT JUMPDEST POP PUSH2 0x2B8 PUSH2 0x643 CALLDATASIZE PUSH1 0x4 PUSH2 0x1F6C JUMP JUMPDEST PUSH2 0x1185 JUMP JUMPDEST CALLVALUE DUP1 ISZERO PUSH2 0x654 JUMPI PUSH1 0x0 DUP1 REVERT JUMPDEST POP PUSH2 0x2B8 PUSH2 0x663 CALLDATASIZE PUSH1 0x4 PUSH2 0x1E34 JUMP JUMPDEST PUSH2 0x126B JUMP JUMPDEST PUSH1 0x0 PUSH1 0x1 PUSH1 0x1 PUSH1 0xE0 SHL SUB NOT DUP3 AND PUSH4 0x80AC58CD PUSH1 0xE0 SHL EQ DUP1 PUSH2 0x699 JUMPI POP PUSH1 0x1 PUSH1 0x1 PUSH1 0xE0 SHL SUB NOT DUP3 AND PUSH4 0x5B5E139F PUSH1 0xE0 SHL EQ JUMPDEST DUP1 PUSH2 0x6B4 JUMPI POP PUSH4 0x1FFC9A7 PUSH1 0xE0 SHL PUSH1 0x1 PUSH1 0x1 PUSH1 0xE0 SHL SUB NOT DUP4 AND EQ JUMPDEST SWAP3 SWAP2 POP POP JUMP JUMPDEST PUSH1 0x60 PUSH1 0x0 DUP1 SLOAD PUSH2 0x6C9 SWAP1 PUSH2 0x1F8F JUMP JUMPDEST DUP1 PUSH1 0x1F ADD PUSH1 0x20 DUP1 SWAP2 DIV MUL PUSH1 0x20 ADD PUSH1 0x40 MLOAD SWAP1 DUP2 ADD PUSH1 0x40 MSTORE DUP1 SWAP3 SWAP2 SWAP1 DUP2 DUP2 MSTORE PUSH1 0x20 ADD DUP3 DUP1 SLOAD PUSH2 0x6F5 SWAP1 PUSH2 0x1F8F JUMP JUMPDEST DUP1 ISZERO PUSH2 0x742 JUMPI DUP1 PUSH1 0x1F LT PUSH2 0x717 JUMPI PUSH2 0x100 DUP1 DUP4 SLOAD DIV MUL DUP4 MSTORE SWAP2 PUSH1 0x20 ADD SWAP2 PUSH2 0x742 JUMP JUMPDEST DUP3 ADD SWAP2 SWAP1 PUSH1 0x0 MSTORE PUSH1 0x20 PUSH1 0x0 KECCAK256 SWAP1 JUMPDEST DUP2 SLOAD DUP2 MSTORE SWAP1 PUSH1 0x1 ADD SWAP1 PUSH1 0x20 ADD DUP1 DUP4 GT PUSH2 0x725 JUMPI DUP3 SWAP1 SUB PUSH1 0x1F AND DUP3 ADD SWAP2 JUMPDEST POP POP POP POP POP SWAP1 POP SWAP1 JUMP JUMPDEST PUSH1 0x0 DUP2 DUP2 MSTORE PUSH1 0x2 PUSH1 0x20 MSTORE PUSH1 0x40 DUP2 KECCAK256 SLOAD PUSH1 0x1 PUSH1 0x1 PUSH1 0xA0 SHL SUB AND PUSH2 0x7CA JUMPI PUSH1 0x40 MLOAD PUSH3 0x461BCD PUSH1 0xE5 SHL DUP2 MSTORE PUSH1 0x20 PUSH1 0x4 DUP3 ADD MSTORE PUSH1 0x2C PUSH1 0x24 DUP3 ADD MSTORE PUSH32 0x4552433732313A20617070726F76656420717565727920666F72206E6F6E6578 PUSH1 0x44 DUP3 ADD MSTORE PUSH12 0x34B9BA32B73A103A37B5B2B7 PUSH1 0xA1 SHL PUSH1 0x64 DUP3 ADD MSTORE PUSH1 0x84 ADD JUMPDEST PUSH1 0x40 MLOAD DUP1 SWAP2 SUB SWAP1 REVERT JUMPDEST POP PUSH1 0x0 SWAP1 DUP2 MSTORE PUSH1 0x4 PUSH1 0x20 MSTORE PUSH1 0x40 SWAP1 KECCAK256 SLOAD PUSH1 0x1 PUSH1 0x1 PUSH1 0xA0 SHL SUB AND SWAP1 JUMP JUMPDEST PUSH1 0x0 PUSH2 0x7F1 DUP3 PUSH2 0xC4D JUMP JUMPDEST SWAP1 POP DUP1 PUSH1 0x1 PUSH1 0x1 PUSH1 0xA0 SHL SUB AND DUP4 PUSH1 0x1 PUSH1 0x1 PUSH1 0xA0 SHL SUB AND SUB PUSH2 0x85E JUMPI PUSH1 0x40 MLOAD PUSH3 0x461BCD PUSH1 0xE5 SHL DUP2 MSTORE PUSH1 0x20 PUSH1 0x4 DUP3 ADD MSTORE PUSH1 0x21 PUSH1 0x24 DUP3 ADD MSTORE PUSH32 0x4552433732313A20617070726F76616C20746F2063757272656E74206F776E65 PUSH1 0x44 DUP3 ADD MSTORE PUSH1 0x39 PUSH1 0xF9 SHL PUSH1 0x64 DUP3 ADD MSTORE PUSH1 0x84 ADD PUSH2 0x7C1 JUMP JUMPDEST CALLER PUSH1 0x1 PUSH1 0x1 PUSH1 0xA0 SHL SUB DUP3 AND EQ DUP1 PUSH2 0x87A JUMPI POP PUSH2 0x87A DUP2 CALLER PUSH2 0x5FA JUMP JUMPDEST PUSH2 0x8EC JUMPI PUSH1 0x40 MLOAD PUSH3 0x461BCD PUSH1 0xE5 SHL DUP2 MSTORE PUSH1 0x20 PUSH1 0x4 DUP3 ADD MSTORE PUSH1 0x38 PUSH1 0x24 DUP3 ADD MSTORE PUSH32 0x4552433732313A20617070726F76652063616C6C6572206973206E6F74206F77 PUSH1 0x44 DUP3 ADD MSTORE PUSH32 0x6E6572206E6F7220617070726F76656420666F7220616C6C0000000000000000 PUSH1 0x64 DUP3 ADD MSTORE PUSH1 0x84 ADD PUSH2 0x7C1 JUMP JUMPDEST PUSH2 0x8F6 DUP4 DUP4 PUSH2 0x1303 JUMP JUMPDEST POP POP POP JUMP JUMPDEST PUSH1 0x6 SLOAD PUSH1 0x1 PUSH1 0x1 PUSH1 0xA0 SHL SUB AND CALLER EQ PUSH2 0x925 JUMPI PUSH1 0x40 MLOAD PUSH3 0x461BCD PUSH1 0xE5 SHL DUP2 MSTORE PUSH1 0x4 ADD PUSH2 0x7C1 SWAP1 PUSH2 0x1FC9 JUMP JUMPDEST DUP1 MLOAD PUSH2 0x938 SWAP1 PUSH1 0x9 SWAP1 PUSH1 0x20 DUP5 ADD SWAP1 PUSH2 0x1B62 JUMP JUMPDEST POP POP JUMP JUMPDEST PUSH1 0x6 SLOAD PUSH1 0x1 PUSH1 0x1 PUSH1 0xA0 SHL SUB AND CALLER EQ PUSH2 0x966 JUMPI PUSH1 0x40 MLOAD PUSH3 0x461BCD PUSH1 0xE5 SHL DUP2 MSTORE PUSH1 0x4 ADD PUSH2 0x7C1 SWAP1 PUSH2 0x1FC9 JUMP JUMPDEST PUSH1 0xF DUP1 SLOAD PUSH1 0xFF NOT AND SWAP2 ISZERO ISZERO SWAP2 SWAP1 SWAP2 OR SWAP1 SSTORE JUMP JUMPDEST PUSH1 0x0 PUSH2 0x984 PUSH1 0x7 SLOAD SWAP1 JUMP JUMPDEST SWAP1 POP SWAP1 JUMP JUMPDEST PUSH2 0x993 CALLER DUP3 PUSH2 0x1371 JUMP JUMPDEST PUSH2 0x9AF JUMPI PUSH1 0x40 MLOAD PUSH3 0x461BCD PUSH1 0xE5 SHL DUP2 MSTORE PUSH1 0x4 ADD PUSH2 0x7C1 SWAP1 PUSH2 0x1FFE JUMP JUMPDEST PUSH2 0x8F6 DUP4 DUP4 DUP4 PUSH2 0x1468 JUMP JUMPDEST PUSH1 0x6 SLOAD PUSH1 0x1 PUSH1 0x1 PUSH1 0xA0 SHL SUB AND CALLER EQ PUSH2 0x9E4 JUMPI PUSH1 0x40 MLOAD PUSH3 0x461BCD PUSH1 0xE5 SHL DUP2 MSTORE PUSH1 0x4 ADD PUSH2 0x7C1 SWAP1 PUSH2 0x1FC9 JUMP JUMPDEST PUSH1 0x0 PUSH2 0x9F8 PUSH1 0x6 SLOAD PUSH1 0x1 PUSH1 0x1 PUSH1 0xA0 SHL SUB AND SWAP1 JUMP JUMPDEST PUSH1 0x1 PUSH1 0x1 PUSH1 0xA0 SHL SUB AND SELFBALANCE PUSH1 0x40 MLOAD PUSH1 0x0 PUSH1 0x40 MLOAD DUP1 DUP4 SUB DUP2 DUP6 DUP8 GAS CALL SWAP3 POP POP POP RETURNDATASIZE DUP1 PUSH1 0x0 DUP2 EQ PUSH2 0xA42 JUMPI PUSH1 0x40 MLOAD SWAP2 POP PUSH1 0x1F NOT PUSH1 0x3F RETURNDATASIZE ADD AND DUP3 ADD PUSH1 0x40 MSTORE RETURNDATASIZE DUP3 MSTORE RETURNDATASIZE PUSH1 0x0 PUSH1 0x20 DUP5 ADD RETURNDATACOPY PUSH2 0xA47 JUMP JUMPDEST PUSH1 0x60 SWAP2 POP JUMPDEST POP POP SWAP1 POP DUP1 PUSH2 0xA55 JUMPI PUSH1 0x0 DUP1 REVERT JUMPDEST POP JUMP JUMPDEST PUSH2 0x8F6 DUP4 DUP4 DUP4 PUSH1 0x40 MLOAD DUP1 PUSH1 0x20 ADD PUSH1 0x40 MSTORE DUP1 PUSH1 0x0 DUP2 MSTORE POP PUSH2 0xF85 JUMP JUMPDEST PUSH1 0x60 PUSH1 0x0 PUSH2 0xA80 DUP4 PUSH2 0xCC4 JUMP JUMPDEST SWAP1 POP PUSH1 0x0 DUP2 PUSH8 0xFFFFFFFFFFFFFFFF DUP2 GT ISZERO PUSH2 0xA9D JUMPI PUSH2 0xA9D PUSH2 0x1CF8 JUMP JUMPDEST PUSH1 0x40 MLOAD SWAP1 DUP1 DUP3 MSTORE DUP1 PUSH1 0x20 MUL PUSH1 0x20 ADD DUP3 ADD PUSH1 0x40 MSTORE DUP1 ISZERO PUSH2 0xAC6 JUMPI DUP2 PUSH1 0x20 ADD PUSH1 0x20 DUP3 MUL DUP1 CALLDATASIZE DUP4 CALLDATACOPY ADD SWAP1 POP JUMPDEST POP SWAP1 POP PUSH1 0x1 PUSH1 0x0 JUMPDEST DUP4 DUP2 LT DUP1 ISZERO PUSH2 0xADF JUMPI POP PUSH1 0xC SLOAD DUP3 GT ISZERO JUMPDEST ISZERO PUSH2 0xB49 JUMPI PUSH1 0x0 PUSH2 0xAEF DUP4 PUSH2 0xC4D JUMP JUMPDEST SWAP1 POP DUP7 PUSH1 0x1 PUSH1 0x1 PUSH1 0xA0 SHL SUB AND DUP2 PUSH1 0x1 PUSH1 0x1 PUSH1 0xA0 SHL SUB AND SUB PUSH2 0xB36 JUMPI DUP3 DUP5 DUP4 DUP2 MLOAD DUP2 LT PUSH2 0xB1D JUMPI PUSH2 0xB1D PUSH2 0x204F JUMP JUMPDEST PUSH1 0x20 SWAP1 DUP2 MUL SWAP2 SWAP1 SWAP2 ADD ADD MSTORE DUP2 PUSH2 0xB32 DUP2 PUSH2 0x207B JUMP JUMPDEST SWAP3 POP POP JUMPDEST DUP3 PUSH2 0xB40 DUP2 PUSH2 0x207B JUMP JUMPDEST SWAP4 POP POP POP PUSH2 0xACE JUMP JUMPDEST POP SWAP1 SWAP5 SWAP4 POP POP POP POP JUMP JUMPDEST PUSH1 0x6 SLOAD PUSH1 0x1 PUSH1 0x1 PUSH1 0xA0 SHL SUB AND CALLER EQ PUSH2 0xB7D JUMPI PUSH1 0x40 MLOAD PUSH3 0x461BCD PUSH1 0xE5 SHL DUP2 MSTORE PUSH1 0x4 ADD PUSH2 0x7C1 SWAP1 PUSH2 0x1FC9 JUMP JUMPDEST PUSH1 0xB SSTORE JUMP JUMPDEST PUSH1 0x6 SLOAD PUSH1 0x1 PUSH1 0x1 PUSH1 0xA0 SHL SUB AND CALLER EQ PUSH2 0xBAC JUMPI PUSH1 0x40 MLOAD PUSH3 0x461BCD PUSH1 0xE5 SHL DUP2 MSTORE PUSH1 0x4 ADD PUSH2 0x7C1 SWAP1 PUSH2 0x1FC9 JUMP JUMPDEST DUP1 MLOAD PUSH2 0x938 SWAP1 PUSH1 0xA SWAP1 PUSH1 0x20 DUP5 ADD SWAP1 PUSH2 0x1B62 JUMP JUMPDEST PUSH1 0x9 DUP1 SLOAD PUSH2 0xBCC SWAP1 PUSH2 0x1F8F JUMP JUMPDEST DUP1 PUSH1 0x1F ADD PUSH1 0x20 DUP1 SWAP2 DIV MUL PUSH1 0x20 ADD PUSH1 0x40 MLOAD SWAP1 DUP2 ADD PUSH1 0x40 MSTORE DUP1 SWAP3 SWAP2 SWAP1 DUP2 DUP2 MSTORE PUSH1 0x20 ADD DUP3 DUP1 SLOAD PUSH2 0xBF8 SWAP1 PUSH2 0x1F8F JUMP JUMPDEST DUP1 ISZERO PUSH2 0xC45 JUMPI DUP1 PUSH1 0x1F LT PUSH2 0xC1A JUMPI PUSH2 0x100 DUP1 DUP4 SLOAD DIV MUL DUP4 MSTORE SWAP2 PUSH1 0x20 ADD SWAP2 PUSH2 0xC45 JUMP JUMPDEST DUP3 ADD SWAP2 SWAP1 PUSH1 0x0 MSTORE PUSH1 0x20 PUSH1 0x0 KECCAK256 SWAP1 JUMPDEST DUP2 SLOAD DUP2 MSTORE SWAP1 PUSH1 0x1 ADD SWAP1 PUSH1 0x20 ADD DUP1 DUP4 GT PUSH2 0xC28 JUMPI DUP3 SWAP1 SUB PUSH1 0x1F AND DUP3 ADD SWAP2 JUMPDEST POP POP POP POP POP DUP2 JUMP JUMPDEST PUSH1 0x0 DUP2 DUP2 MSTORE PUSH1 0x2 PUSH1 0x20 MSTORE PUSH1 0x40 DUP2 KECCAK256 SLOAD PUSH1 0x1 PUSH1 0x1 PUSH1 0xA0 SHL SUB AND DUP1 PUSH2 0x6B4 JUMPI PUSH1 0x40 MLOAD PUSH3 0x461BCD PUSH1 0xE5 SHL DUP2 MSTORE PUSH1 0x20 PUSH1 0x4 DUP3 ADD MSTORE PUSH1 0x29 PUSH1 0x24 DUP3 ADD MSTORE PUSH32 0x4552433732313A206F776E657220717565727920666F72206E6F6E6578697374 PUSH1 0x44 DUP3 ADD MSTORE PUSH9 0x32B73A103A37B5B2B7 PUSH1 0xB9 SHL PUSH1 0x64 DUP3 ADD MSTORE PUSH1 0x84 ADD PUSH2 0x7C1 JUMP JUMPDEST PUSH1 0x0 PUSH1 0x1 PUSH1 0x1 PUSH1 0xA0 SHL SUB DUP3 AND PUSH2 0xD2F JUMPI PUSH1 0x40 MLOAD PUSH3 0x461BCD PUSH1 0xE5 SHL DUP2 MSTORE PUSH1 0x20 PUSH1 0x4 DUP3 ADD MSTORE PUSH1 0x2A PUSH1 0x24 DUP3 ADD MSTORE PUSH32 0x4552433732313A2062616C616E636520717565727920666F7220746865207A65 PUSH1 0x44 DUP3 ADD MSTORE PUSH10 0x726F2061646472657373 PUSH1 0xB0 SHL PUSH1 0x64 DUP3 ADD MSTORE PUSH1 0x84 ADD PUSH2 0x7C1 JUMP JUMPDEST POP PUSH1 0x1 PUSH1 0x1 PUSH1 0xA0 SHL SUB AND PUSH1 0x0 SWAP1 DUP2 MSTORE PUSH1 0x3 PUSH1 0x20 MSTORE PUSH1 0x40 SWAP1 KECCAK256 SLOAD SWAP1 JUMP JUMPDEST PUSH1 0x6 SLOAD PUSH1 0x1 PUSH1 0x1 PUSH1 0xA0 SHL SUB AND CALLER EQ PUSH2 0xD75 JUMPI PUSH1 0x40 MLOAD PUSH3 0x461BCD PUSH1 0xE5 SHL DUP2 MSTORE PUSH1 0x4 ADD PUSH2 0x7C1 SWAP1 PUSH2 0x1FC9 JUMP JUMPDEST PUSH2 0xD7F PUSH1 0x0 PUSH2 0x1608 JUMP JUMPDEST JUMP JUMPDEST PUSH1 0x6 SLOAD PUSH1 0x1 PUSH1 0x1 PUSH1 0xA0 SHL SUB AND CALLER EQ PUSH2 0xDAB JUMPI PUSH1 0x40 MLOAD PUSH3 0x461BCD PUSH1 0xE5 SHL DUP2 MSTORE PUSH1 0x4 ADD PUSH2 0x7C1 SWAP1 PUSH2 0x1FC9 JUMP JUMPDEST PUSH1 0x8 SLOAD PUSH1 0x0 SWAP1 DUP2 MSTORE PUSH1 0xE PUSH1 0x20 SWAP1 DUP2 MSTORE PUSH1 0x40 SWAP1 SWAP2 KECCAK256 DUP3 MLOAD PUSH2 0x938 SWAP3 DUP5 ADD SWAP1 PUSH2 0x1B62 JUMP JUMPDEST PUSH1 0x60 PUSH1 0x1 DUP1 SLOAD PUSH2 0x6C9 SWAP1 PUSH2 0x1F8F JUMP JUMPDEST DUP1 PUSH1 0x0 DUP2 GT DUP1 ISZERO PUSH2 0xDEF JUMPI POP PUSH1 0xD SLOAD DUP2 GT ISZERO JUMPDEST PUSH2 0xE32 JUMPI PUSH1 0x40 MLOAD PUSH3 0x461BCD PUSH1 0xE5 SHL DUP2 MSTORE PUSH1 0x20 PUSH1 0x4 DUP3 ADD MSTORE PUSH1 0x14 PUSH1 0x24 DUP3 ADD MSTORE PUSH20 0x496E76616C6964206D696E7420616D6F756E7421 PUSH1 0x60 SHL PUSH1 0x44 DUP3 ADD MSTORE PUSH1 0x64 ADD PUSH2 0x7C1 JUMP JUMPDEST PUSH1 0xC SLOAD DUP2 PUSH2 0xE3F PUSH1 0x7 SLOAD SWAP1 JUMP JUMPDEST PUSH2 0xE49 SWAP2 SWAP1 PUSH2 0x2094 JUMP JUMPDEST GT ISZERO PUSH2 0xE8E JUMPI PUSH1 0x40 MLOAD PUSH3 0x461BCD PUSH1 0xE5 SHL DUP2 MSTORE PUSH1 0x20 PUSH1 0x4 DUP3 ADD MSTORE PUSH1 0x14 PUSH1 0x24 DUP3 ADD MSTORE PUSH20 0x4D617820737570706C7920657863656564656421 PUSH1 0x60 SHL PUSH1 0x44 DUP3 ADD MSTORE PUSH1 0x64 ADD PUSH2 0x7C1 JUMP JUMPDEST PUSH1 0xF SLOAD PUSH1 0xFF AND ISZERO PUSH2 0xEE1 JUMPI PUSH1 0x40 MLOAD PUSH3 0x461BCD PUSH1 0xE5 SHL DUP2 MSTORE PUSH1 0x20 PUSH1 0x4 DUP3 ADD MSTORE PUSH1 0x17 PUSH1 0x24 DUP3 ADD MSTORE PUSH32 0x54686520636F6E74726163742069732070617573656421000000000000000000 PUSH1 0x44 DUP3 ADD MSTORE PUSH1 0x64 ADD PUSH2 0x7C1 JUMP JUMPDEST DUP2 PUSH1 0xB SLOAD PUSH2 0xEEF SWAP2 SWAP1 PUSH2 0x20AC JUMP JUMPDEST CALLVALUE LT ISZERO PUSH2 0xF34 JUMPI PUSH1 0x40 MLOAD PUSH3 0x461BCD PUSH1 0xE5 SHL DUP2 MSTORE PUSH1 0x20 PUSH1 0x4 DUP3 ADD MSTORE PUSH1 0x13 PUSH1 0x24 DUP3 ADD MSTORE PUSH19 0x496E73756666696369656E742066756E647321 PUSH1 0x68 SHL PUSH1 0x44 DUP3 ADD MSTORE PUSH1 0x64 ADD PUSH2 0x7C1 JUMP JUMPDEST PUSH2 0x938 CALLER DUP4 PUSH2 0x165A JUMP JUMPDEST PUSH2 0x938 CALLER DUP4 DUP4 PUSH2 0x16B0 JUMP JUMPDEST PUSH1 0xA DUP1 SLOAD PUSH2 0xBCC SWAP1 PUSH2 0x1F8F JUMP JUMPDEST PUSH1 0x6 SLOAD PUSH1 0x1 PUSH1 0x1 PUSH1 0xA0 SHL SUB AND CALLER EQ PUSH2 0xF80 JUMPI PUSH1 0x40 MLOAD PUSH3 0x461BCD PUSH1 0xE5 SHL DUP2 MSTORE PUSH1 0x4 ADD PUSH2 0x7C1 SWAP1 PUSH2 0x1FC9 JUMP JUMPDEST PUSH1 0xD SSTORE JUMP JUMPDEST PUSH2 0xF8F CALLER DUP4 PUSH2 0x1371 JUMP JUMPDEST PUSH2 0xFAB JUMPI PUSH1 0x40 MLOAD PUSH3 0x461BCD PUSH1 0xE5 SHL DUP2 MSTORE PUSH1 0x4 ADD PUSH2 0x7C1 SWAP1 PUSH2 0x1FFE JUMP JUMPDEST PUSH2 0xFB7 DUP5 DUP5 DUP5 DUP5 PUSH2 0x177E JUMP JUMPDEST POP POP POP POP JUMP JUMPDEST PUSH1 0x0 DUP2 DUP2 MSTORE PUSH1 0x2 PUSH1 0x20 MSTORE PUSH1 0x40 SWAP1 KECCAK256 SLOAD PUSH1 0x60 SWAP1 PUSH1 0x1 PUSH1 0x1 PUSH1 0xA0 SHL SUB AND PUSH2 0x103C JUMPI PUSH1 0x40 MLOAD PUSH3 0x461BCD PUSH1 0xE5 SHL DUP2 MSTORE PUSH1 0x20 PUSH1 0x4 DUP3 ADD MSTORE PUSH1 0x2F PUSH1 0x24 DUP3 ADD MSTORE PUSH32 0x4552433732314D657461646174613A2055524920717565727920666F72206E6F PUSH1 0x44 DUP3 ADD MSTORE PUSH15 0x3732BC34B9BA32B73A103A37B5B2B7 PUSH1 0x89 SHL PUSH1 0x64 DUP3 ADD MSTORE PUSH1 0x84 ADD PUSH2 0x7C1 JUMP JUMPDEST PUSH1 0xF SLOAD PUSH2 0x100 SWAP1 DIV PUSH1 0xFF AND ISZERO ISZERO PUSH1 0x0 SUB PUSH2 0x10E2 JUMPI PUSH1 0xA DUP1 SLOAD PUSH2 0x105D SWAP1 PUSH2 0x1F8F JUMP JUMPDEST DUP1 PUSH1 0x1F ADD PUSH1 0x20 DUP1 SWAP2 DIV MUL PUSH1 0x20 ADD PUSH1 0x40 MLOAD SWAP1 DUP2 ADD PUSH1 0x40 MSTORE DUP1 SWAP3 SWAP2 SWAP1 DUP2 DUP2 MSTORE PUSH1 0x20 ADD DUP3 DUP1 SLOAD PUSH2 0x1089 SWAP1 PUSH2 0x1F8F JUMP JUMPDEST DUP1 ISZERO PUSH2 0x10D6 JUMPI DUP1 PUSH1 0x1F LT PUSH2 0x10AB JUMPI PUSH2 0x100 DUP1 DUP4 SLOAD DIV MUL DUP4 MSTORE SWAP2 PUSH1 0x20 ADD SWAP2 PUSH2 0x10D6 JUMP JUMPDEST DUP3 ADD SWAP2 SWAP1 PUSH1 0x0 MSTORE PUSH1 0x20 PUSH1 0x0 KECCAK256 SWAP1 JUMPDEST DUP2 SLOAD DUP2 MSTORE SWAP1 PUSH1 0x1 ADD SWAP1 PUSH1 0x20 ADD DUP1 DUP4 GT PUSH2 0x10B9 JUMPI DUP3 SWAP1 SUB PUSH1 0x1F AND DUP3 ADD SWAP2 JUMPDEST POP POP POP POP POP SWAP1 POP SWAP2 SWAP1 POP JUMP JUMPDEST PUSH1 0x0 PUSH2 0x10EC PUSH2 0x17B1 JUMP JUMPDEST SWAP1 POP PUSH1 0x0 DUP2 MLOAD GT PUSH2 0x110C JUMPI PUSH1 0x40 MLOAD DUP1 PUSH1 0x20 ADD PUSH1 0x40 MSTORE DUP1 PUSH1 0x0 DUP2 MSTORE POP PUSH2 0x113A JUMP JUMPDEST DUP1 PUSH2 0x1116 DUP5 PUSH2 0x17D1 JUMP JUMPDEST PUSH1 0x9 PUSH1 0x40 MLOAD PUSH1 0x20 ADD PUSH2 0x112A SWAP4 SWAP3 SWAP2 SWAP1 PUSH2 0x20CB JUMP JUMPDEST PUSH1 0x40 MLOAD PUSH1 0x20 DUP2 DUP4 SUB SUB DUP2 MSTORE SWAP1 PUSH1 0x40 MSTORE JUMPDEST SWAP4 SWAP3 POP POP POP JUMP JUMPDEST PUSH1 0x6 SLOAD PUSH1 0x1 PUSH1 0x1 PUSH1 0xA0 SHL SUB AND CALLER EQ PUSH2 0x116B JUMPI PUSH1 0x40 MLOAD PUSH3 0x461BCD PUSH1 0xE5 SHL DUP2 MSTORE PUSH1 0x4 ADD PUSH2 0x7C1 SWAP1 PUSH2 0x1FC9 JUMP JUMPDEST PUSH1 0xF DUP1 SLOAD SWAP2 ISZERO ISZERO PUSH2 0x100 MUL PUSH2 0xFF00 NOT SWAP1 SWAP3 AND SWAP2 SWAP1 SWAP2 OR SWAP1 SSTORE JUMP JUMPDEST DUP2 PUSH1 0x0 DUP2 GT DUP1 ISZERO PUSH2 0x1198 JUMPI POP PUSH1 0xD SLOAD DUP2 GT ISZERO JUMPDEST PUSH2 0x11DB JUMPI PUSH1 0x40 MLOAD PUSH3 0x461BCD PUSH1 0xE5 SHL DUP2 MSTORE PUSH1 0x20 PUSH1 0x4 DUP3 ADD MSTORE PUSH1 0x14 PUSH1 0x24 DUP3 ADD MSTORE PUSH20 0x496E76616C6964206D696E7420616D6F756E7421 PUSH1 0x60 SHL PUSH1 0x44 DUP3 ADD MSTORE PUSH1 0x64 ADD PUSH2 0x7C1 JUMP JUMPDEST PUSH1 0xC SLOAD DUP2 PUSH2 0x11E8 PUSH1 0x7 SLOAD SWAP1 JUMP JUMPDEST PUSH2 0x11F2 SWAP2 SWAP1 PUSH2 0x2094 JUMP JUMPDEST GT ISZERO PUSH2 0x1237 JUMPI PUSH1 0x40 MLOAD PUSH3 0x461BCD PUSH1 0xE5 SHL DUP2 MSTORE PUSH1 0x20 PUSH1 0x4 DUP3 ADD MSTORE PUSH1 0x14 PUSH1 0x24 DUP3 ADD MSTORE PUSH20 0x4D617820737570706C7920657863656564656421 PUSH1 0x60 SHL PUSH1 0x44 DUP3 ADD MSTORE PUSH1 0x64 ADD PUSH2 0x7C1 JUMP JUMPDEST PUSH1 0x6 SLOAD PUSH1 0x1 PUSH1 0x1 PUSH1 0xA0 SHL SUB AND CALLER EQ PUSH2 0x1261 JUMPI PUSH1 0x40 MLOAD PUSH3 0x461BCD PUSH1 0xE5 SHL DUP2 MSTORE PUSH1 0x4 ADD PUSH2 0x7C1 SWAP1 PUSH2 0x1FC9 JUMP JUMPDEST PUSH2 0x8F6 DUP3 DUP5 PUSH2 0x165A JUMP JUMPDEST PUSH1 0x6 SLOAD PUSH1 0x1 PUSH1 0x1 PUSH1 0xA0 SHL SUB AND CALLER EQ PUSH2 0x1295 JUMPI PUSH1 0x40 MLOAD PUSH3 0x461BCD PUSH1 0xE5 SHL DUP2 MSTORE PUSH1 0x4 ADD PUSH2 0x7C1 SWAP1 PUSH2 0x1FC9 JUMP JUMPDEST PUSH1 0x1 PUSH1 0x1 PUSH1 0xA0 SHL SUB DUP2 AND PUSH2 0x12FA JUMPI PUSH1 0x40 MLOAD PUSH3 0x461BCD PUSH1 0xE5 SHL DUP2 MSTORE PUSH1 0x20 PUSH1 0x4 DUP3 ADD MSTORE PUSH1 0x26 PUSH1 0x24 DUP3 ADD MSTORE PUSH32 0x4F776E61626C653A206E6577206F776E657220697320746865207A65726F2061 PUSH1 0x44 DUP3 ADD MSTORE PUSH6 0x646472657373 PUSH1 0xD0 SHL PUSH1 0x64 DUP3 ADD MSTORE PUSH1 0x84 ADD PUSH2 0x7C1 JUMP JUMPDEST PUSH2 0xA55 DUP2 PUSH2 0x1608 JUMP JUMPDEST PUSH1 0x0 DUP2 DUP2 MSTORE PUSH1 0x4 PUSH1 0x20 MSTORE PUSH1 0x40 SWAP1 KECCAK256 DUP1 SLOAD PUSH1 0x1 PUSH1 0x1 PUSH1 0xA0 SHL SUB NOT AND PUSH1 0x1 PUSH1 0x1 PUSH1 0xA0 SHL SUB DUP5 AND SWAP1 DUP2 OR SWAP1 SWAP2 SSTORE DUP2 SWAP1 PUSH2 0x1338 DUP3 PUSH2 0xC4D JUMP JUMPDEST PUSH1 0x1 PUSH1 0x1 PUSH1 0xA0 SHL SUB AND PUSH32 0x8C5BE1E5EBEC7D5BD14F71427D1E84F3DD0314C0F7B2291E5B200AC8C7C3B925 PUSH1 0x40 MLOAD PUSH1 0x40 MLOAD DUP1 SWAP2 SUB SWAP1 LOG4 POP POP JUMP JUMPDEST PUSH1 0x0 DUP2 DUP2 MSTORE PUSH1 0x2 PUSH1 0x20 MSTORE PUSH1 0x40 DUP2 KECCAK256 SLOAD PUSH1 0x1 PUSH1 0x1 PUSH1 0xA0 SHL SUB AND PUSH2 0x13EA JUMPI PUSH1 0x40 MLOAD PUSH3 0x461BCD PUSH1 0xE5 SHL DUP2 MSTORE PUSH1 0x20 PUSH1 0x4 DUP3 ADD MSTORE PUSH1 0x2C PUSH1 0x24 DUP3 ADD MSTORE PUSH32 0x4552433732313A206F70657261746F7220717565727920666F72206E6F6E6578 PUSH1 0x44 DUP3 ADD MSTORE PUSH12 0x34B9BA32B73A103A37B5B2B7 PUSH1 0xA1 SHL PUSH1 0x64 DUP3 ADD MSTORE PUSH1 0x84 ADD PUSH2 0x7C1 JUMP JUMPDEST PUSH1 0x0 PUSH2 0x13F5 DUP4 PUSH2 0xC4D JUMP JUMPDEST SWAP1 POP DUP1 PUSH1 0x1 PUSH1 0x1 PUSH1 0xA0 SHL SUB AND DUP5 PUSH1 0x1 PUSH1 0x1 PUSH1 0xA0 SHL SUB AND EQ DUP1 PUSH2 0x1430 JUMPI POP DUP4 PUSH1 0x1 PUSH1 0x1 PUSH1 0xA0 SHL SUB AND PUSH2 0x1425 DUP5 PUSH2 0x74C JUMP JUMPDEST PUSH1 0x1 PUSH1 0x1 PUSH1 0xA0 SHL SUB AND EQ JUMPDEST DUP1 PUSH2 0x1460 JUMPI POP PUSH1 0x1 PUSH1 0x1 PUSH1 0xA0 SHL SUB DUP1 DUP3 AND PUSH1 0x0 SWAP1 DUP2 MSTORE PUSH1 0x5 PUSH1 0x20 SWAP1 DUP2 MSTORE PUSH1 0x40 DUP1 DUP4 KECCAK256 SWAP4 DUP9 AND DUP4 MSTORE SWAP3 SWAP1 MSTORE KECCAK256 SLOAD PUSH1 0xFF AND JUMPDEST SWAP5 SWAP4 POP POP POP POP JUMP JUMPDEST DUP3 PUSH1 0x1 PUSH1 0x1 PUSH1 0xA0 SHL SUB AND PUSH2 0x147B DUP3 PUSH2 0xC4D JUMP JUMPDEST PUSH1 0x1 PUSH1 0x1 PUSH1 0xA0 SHL SUB AND EQ PUSH2 0x14E3 JUMPI PUSH1 0x40 MLOAD PUSH3 0x461BCD PUSH1 0xE5 SHL DUP2 MSTORE PUSH1 0x20 PUSH1 0x4 DUP3 ADD MSTORE PUSH1 0x29 PUSH1 0x24 DUP3 ADD MSTORE PUSH32 0x4552433732313A207472616E73666572206F6620746F6B656E20746861742069 PUSH1 0x44 DUP3 ADD MSTORE PUSH9 0x39903737BA1037BBB7 PUSH1 0xB9 SHL PUSH1 0x64 DUP3 ADD MSTORE PUSH1 0x84 ADD PUSH2 0x7C1 JUMP JUMPDEST PUSH1 0x1 PUSH1 0x1 PUSH1 0xA0 SHL SUB DUP3 AND PUSH2 0x1545 JUMPI PUSH1 0x40 MLOAD PUSH3 0x461BCD PUSH1 0xE5 SHL DUP2 MSTORE PUSH1 0x20 PUSH1 0x4 DUP3 ADD MSTORE PUSH1 0x24 DUP1 DUP3 ADD MSTORE PUSH32 0x4552433732313A207472616E7366657220746F20746865207A65726F20616464 PUSH1 0x44 DUP3 ADD MSTORE PUSH4 0x72657373 PUSH1 0xE0 SHL PUSH1 0x64 DUP3 ADD MSTORE PUSH1 0x84 ADD PUSH2 0x7C1 JUMP JUMPDEST PUSH2 0x1550 PUSH1 0x0 DUP3 PUSH2 0x1303 JUMP JUMPDEST PUSH1 0x1 PUSH1 0x1 PUSH1 0xA0 SHL SUB DUP4 AND PUSH1 0x0 SWAP1 DUP2 MSTORE PUSH1 0x3 PUSH1 0x20 MSTORE PUSH1 0x40 DUP2 KECCAK256 DUP1 SLOAD PUSH1 0x1 SWAP3 SWAP1 PUSH2 0x1579 SWAP1 DUP5 SWAP1 PUSH2 0x218E JUMP JUMPDEST SWAP1 SWAP2 SSTORE POP POP PUSH1 0x1 PUSH1 0x1 PUSH1 0xA0 SHL SUB DUP3 AND PUSH1 0x0 SWAP1 DUP2 MSTORE PUSH1 0x3 PUSH1 0x20 MSTORE PUSH1 0x40 DUP2 KECCAK256 DUP1 SLOAD PUSH1 0x1 SWAP3 SWAP1 PUSH2 0x15A7 SWAP1 DUP5 SWAP1 PUSH2 0x2094 JUMP JUMPDEST SWAP1 SWAP2 SSTORE POP POP PUSH1 0x0 DUP2 DUP2 MSTORE PUSH1 0x2 PUSH1 0x20 MSTORE PUSH1 0x40 DUP1 DUP3 KECCAK256 DUP1 SLOAD PUSH1 0x1 PUSH1 0x1 PUSH1 0xA0 SHL SUB NOT AND PUSH1 0x1 PUSH1 0x1 PUSH1 0xA0 SHL SUB DUP7 DUP2 AND SWAP2 DUP3 OR SWAP1 SWAP3 SSTORE SWAP2 MLOAD DUP5 SWAP4 SWAP2 DUP8 AND SWAP2 PUSH32 0xDDF252AD1BE2C89B69C2B068FC378DAA952BA7F163C4A11628F55A4DF523B3EF SWAP2 LOG4 POP POP POP JUMP JUMPDEST PUSH1 0x6 DUP1 SLOAD PUSH1 0x1 PUSH1 0x1 PUSH1 0xA0 SHL SUB DUP4 DUP2 AND PUSH1 0x1 PUSH1 0x1 PUSH1 0xA0 SHL SUB NOT DUP4 AND DUP2 OR SWAP1 SWAP4 SSTORE PUSH1 0x40 MLOAD SWAP2 AND SWAP2 SWAP1 DUP3 SWAP1 PUSH32 0x8BE0079C531659141344CD1FD0A4F28419497F9722A3DAAFE3B4186F6B6457E0 SWAP1 PUSH1 0x0 SWAP1 LOG3 POP POP JUMP JUMPDEST PUSH1 0x0 JUMPDEST DUP2 DUP2 LT ISZERO PUSH2 0x8F6 JUMPI PUSH2 0x1673 PUSH1 0x7 DUP1 SLOAD PUSH1 0x1 ADD SWAP1 SSTORE JUMP JUMPDEST PUSH2 0x1685 DUP4 PUSH2 0x1680 PUSH1 0x7 SLOAD SWAP1 JUMP JUMPDEST PUSH2 0x18D2 JUMP JUMPDEST PUSH1 0x1 PUSH1 0x8 PUSH1 0x0 DUP3 DUP3 SLOAD PUSH2 0x1698 SWAP2 SWAP1 PUSH2 0x2094 JUMP JUMPDEST SWAP1 SWAP2 SSTORE POP DUP2 SWAP1 POP PUSH2 0x16A8 DUP2 PUSH2 0x207B JUMP JUMPDEST SWAP2 POP POP PUSH2 0x165D JUMP JUMPDEST DUP2 PUSH1 0x1 PUSH1 0x1 PUSH1 0xA0 SHL SUB AND DUP4 PUSH1 0x1 PUSH1 0x1 PUSH1 0xA0 SHL SUB AND SUB PUSH2 0x1711 JUMPI PUSH1 0x40 MLOAD PUSH3 0x461BCD PUSH1 0xE5 SHL DUP2 MSTORE PUSH1 0x20 PUSH1 0x4 DUP3 ADD MSTORE PUSH1 0x19 PUSH1 0x24 DUP3 ADD MSTORE PUSH32 0x4552433732313A20617070726F766520746F2063616C6C657200000000000000 PUSH1 0x44 DUP3 ADD MSTORE PUSH1 0x64 ADD PUSH2 0x7C1 JUMP JUMPDEST PUSH1 0x1 PUSH1 0x1 PUSH1 0xA0 SHL SUB DUP4 DUP2 AND PUSH1 0x0 DUP2 DUP2 MSTORE PUSH1 0x5 PUSH1 0x20 SWAP1 DUP2 MSTORE PUSH1 0x40 DUP1 DUP4 KECCAK256 SWAP5 DUP8 AND DUP1 DUP5 MSTORE SWAP5 DUP3 MSTORE SWAP2 DUP3 SWAP1 KECCAK256 DUP1 SLOAD PUSH1 0xFF NOT AND DUP7 ISZERO ISZERO SWAP1 DUP2 OR SWAP1 SWAP2 SSTORE SWAP2 MLOAD SWAP2 DUP3 MSTORE PUSH32 0x17307EAB39AB6107E8899845AD3D59BD9653F200F220920489CA2B5937696C31 SWAP2 ADD PUSH1 0x40 MLOAD DUP1 SWAP2 SUB SWAP1 LOG3 POP POP POP JUMP JUMPDEST PUSH2 0x1789 DUP5 DUP5 DUP5 PUSH2 0x1468 JUMP JUMPDEST PUSH2 0x1795 DUP5 DUP5 DUP5 DUP5 PUSH2 0x18EC JUMP JUMPDEST PUSH2 0xFB7 JUMPI PUSH1 0x40 MLOAD PUSH3 0x461BCD PUSH1 0xE5 SHL DUP2 MSTORE PUSH1 0x4 ADD PUSH2 0x7C1 SWAP1 PUSH2 0x21A5 JUMP JUMPDEST PUSH1 0x8 SLOAD PUSH1 0x0 SWAP1 DUP2 MSTORE PUSH1 0xE PUSH1 0x20 MSTORE PUSH1 0x40 SWAP1 KECCAK256 DUP1 SLOAD PUSH1 0x60 SWAP2 SWAP1 PUSH2 0x6C9 SWAP1 PUSH2 0x1F8F JUMP JUMPDEST PUSH1 0x60 DUP2 PUSH1 0x0 SUB PUSH2 0x17F8 JUMPI POP POP PUSH1 0x40 DUP1 MLOAD DUP1 DUP3 ADD SWAP1 SWAP2 MSTORE PUSH1 0x1 DUP2 MSTORE PUSH1 0x3 PUSH1 0xFC SHL PUSH1 0x20 DUP3 ADD MSTORE SWAP1 JUMP JUMPDEST DUP2 PUSH1 0x0 JUMPDEST DUP2 ISZERO PUSH2 0x1822 JUMPI DUP1 PUSH2 0x180C DUP2 PUSH2 0x207B JUMP JUMPDEST SWAP2 POP PUSH2 0x181B SWAP1 POP PUSH1 0xA DUP4 PUSH2 0x220D JUMP JUMPDEST SWAP2 POP PUSH2 0x17FC JUMP JUMPDEST PUSH1 0x0 DUP2 PUSH8 0xFFFFFFFFFFFFFFFF DUP2 GT ISZERO PUSH2 0x183D JUMPI PUSH2 0x183D PUSH2 0x1CF8 JUMP JUMPDEST PUSH1 0x40 MLOAD SWAP1 DUP1 DUP3 MSTORE DUP1 PUSH1 0x1F ADD PUSH1 0x1F NOT AND PUSH1 0x20 ADD DUP3 ADD PUSH1 0x40 MSTORE DUP1 ISZERO PUSH2 0x1867 JUMPI PUSH1 0x20 DUP3 ADD DUP2 DUP1 CALLDATASIZE DUP4 CALLDATACOPY ADD SWAP1 POP JUMPDEST POP SWAP1 POP JUMPDEST DUP5 ISZERO PUSH2 0x1460 JUMPI PUSH2 0x187C PUSH1 0x1 DUP4 PUSH2 0x218E JUMP JUMPDEST SWAP2 POP PUSH2 0x1889 PUSH1 0xA DUP7 PUSH2 0x2221 JUMP JUMPDEST PUSH2 0x1894 SWAP1 PUSH1 0x30 PUSH2 0x2094 JUMP JUMPDEST PUSH1 0xF8 SHL DUP2 DUP4 DUP2 MLOAD DUP2 LT PUSH2 0x18A9 JUMPI PUSH2 0x18A9 PUSH2 0x204F JUMP JUMPDEST PUSH1 0x20 ADD ADD SWAP1 PUSH1 0x1 PUSH1 0x1 PUSH1 0xF8 SHL SUB NOT AND SWAP1 DUP2 PUSH1 0x0 BYTE SWAP1 MSTORE8 POP PUSH2 0x18CB PUSH1 0xA DUP7 PUSH2 0x220D JUMP JUMPDEST SWAP5 POP PUSH2 0x186B JUMP JUMPDEST PUSH2 0x938 DUP3 DUP3 PUSH1 0x40 MLOAD DUP1 PUSH1 0x20 ADD PUSH1 0x40 MSTORE DUP1 PUSH1 0x0 DUP2 MSTORE POP PUSH2 0x19ED JUMP JUMPDEST PUSH1 0x0 PUSH1 0x1 PUSH1 0x1 PUSH1 0xA0 SHL SUB DUP5 AND EXTCODESIZE ISZERO PUSH2 0x19E2 JUMPI PUSH1 0x40 MLOAD PUSH4 0xA85BD01 PUSH1 0xE1 SHL DUP2 MSTORE PUSH1 0x1 PUSH1 0x1 PUSH1 0xA0 SHL SUB DUP6 AND SWAP1 PUSH4 0x150B7A02 SWAP1 PUSH2 0x1930 SWAP1 CALLER SWAP1 DUP10 SWAP1 DUP9 SWAP1 DUP9 SWAP1 PUSH1 0x4 ADD PUSH2 0x2235 JUMP JUMPDEST PUSH1 0x20 PUSH1 0x40 MLOAD DUP1 DUP4 SUB DUP2 PUSH1 0x0 DUP8 GAS CALL SWAP3 POP POP POP DUP1 ISZERO PUSH2 0x196B JUMPI POP PUSH1 0x40 DUP1 MLOAD PUSH1 0x1F RETURNDATASIZE SWAP1 DUP2 ADD PUSH1 0x1F NOT AND DUP3 ADD SWAP1 SWAP3 MSTORE PUSH2 0x1968 SWAP2 DUP2 ADD SWAP1 PUSH2 0x2272 JUMP JUMPDEST PUSH1 0x1 JUMPDEST PUSH2 0x19C8 JUMPI RETURNDATASIZE DUP1 DUP1 ISZERO PUSH2 0x1999 JUMPI PUSH1 0x40 MLOAD SWAP2 POP PUSH1 0x1F NOT PUSH1 0x3F RETURNDATASIZE ADD AND DUP3 ADD PUSH1 0x40 MSTORE RETURNDATASIZE DUP3 MSTORE RETURNDATASIZE PUSH1 0x0 PUSH1 0x20 DUP5 ADD RETURNDATACOPY PUSH2 0x199E JUMP JUMPDEST PUSH1 0x60 SWAP2 POP JUMPDEST POP DUP1 MLOAD PUSH1 0x0 SUB PUSH2 0x19C0 JUMPI PUSH1 0x40 MLOAD PUSH3 0x461BCD PUSH1 0xE5 SHL DUP2 MSTORE PUSH1 0x4 ADD PUSH2 0x7C1 SWAP1 PUSH2 0x21A5 JUMP JUMPDEST DUP1 MLOAD DUP2 PUSH1 0x20 ADD REVERT JUMPDEST PUSH1 0x1 PUSH1 0x1 PUSH1 0xE0 SHL SUB NOT AND PUSH4 0xA85BD01 PUSH1 0xE1 SHL EQ SWAP1 POP PUSH2 0x1460 JUMP JUMPDEST POP PUSH1 0x1 SWAP5 SWAP4 POP POP POP POP JUMP JUMPDEST PUSH2 0x19F7 DUP4 DUP4 PUSH2 0x1A20 JUMP JUMPDEST PUSH2 0x1A04 PUSH1 0x0 DUP5 DUP5 DUP5 PUSH2 0x18EC JUMP JUMPDEST PUSH2 0x8F6 JUMPI PUSH1 0x40 MLOAD PUSH3 0x461BCD PUSH1 0xE5 SHL DUP2 MSTORE PUSH1 0x4 ADD PUSH2 0x7C1 SWAP1 PUSH2 0x21A5 JUMP JUMPDEST PUSH1 0x1 PUSH1 0x1 PUSH1 0xA0 SHL SUB DUP3 AND PUSH2 0x1A76 JUMPI PUSH1 0x40 MLOAD PUSH3 0x461BCD PUSH1 0xE5 SHL DUP2 MSTORE PUSH1 0x20 PUSH1 0x4 DUP3 ADD DUP2 SWAP1 MSTORE PUSH1 0x24 DUP3 ADD MSTORE PUSH32 0x4552433732313A206D696E7420746F20746865207A65726F2061646472657373 PUSH1 0x44 DUP3 ADD MSTORE PUSH1 0x64 ADD PUSH2 0x7C1 JUMP JUMPDEST PUSH1 0x0 DUP2 DUP2 MSTORE PUSH1 0x2 PUSH1 0x20 MSTORE PUSH1 0x40 SWAP1 KECCAK256 SLOAD PUSH1 0x1 PUSH1 0x1 PUSH1 0xA0 SHL SUB AND ISZERO PUSH2 0x1ADB JUMPI PUSH1 0x40 MLOAD PUSH3 0x461BCD PUSH1 0xE5 SHL DUP2 MSTORE PUSH1 0x20 PUSH1 0x4 DUP3 ADD MSTORE PUSH1 0x1C PUSH1 0x24 DUP3 ADD MSTORE PUSH32 0x4552433732313A20746F6B656E20616C7265616479206D696E74656400000000 PUSH1 0x44 DUP3 ADD MSTORE PUSH1 0x64 ADD PUSH2 0x7C1 JUMP JUMPDEST PUSH1 0x1 PUSH1 0x1 PUSH1 0xA0 SHL SUB DUP3 AND PUSH1 0x0 SWAP1 DUP2 MSTORE PUSH1 0x3 PUSH1 0x20 MSTORE PUSH1 0x40 DUP2 KECCAK256 DUP1 SLOAD PUSH1 0x1 SWAP3 SWAP1 PUSH2 0x1B04 SWAP1 DUP5 SWAP1 PUSH2 0x2094 JUMP JUMPDEST SWAP1 SWAP2 SSTORE POP POP PUSH1 0x0 DUP2 DUP2 MSTORE PUSH1 0x2 PUSH1 0x20 MSTORE PUSH1 0x40 DUP1 DUP3 KECCAK256 DUP1 SLOAD PUSH1 0x1 PUSH1 0x1 PUSH1 0xA0 SHL SUB NOT AND PUSH1 0x1 PUSH1 0x1 PUSH1 0xA0 SHL SUB DUP7 AND SWAP1 DUP2 OR SWAP1 SWAP2 SSTORE SWAP1 MLOAD DUP4 SWAP3 SWAP1 PUSH32 0xDDF252AD1BE2C89B69C2B068FC378DAA952BA7F163C4A11628F55A4DF523B3EF SWAP1 DUP3 SWAP1 LOG4 POP POP JUMP JUMPDEST DUP3 DUP1 SLOAD PUSH2 0x1B6E SWAP1 PUSH2 0x1F8F JUMP JUMPDEST SWAP1 PUSH1 0x0 MSTORE PUSH1 0x20 PUSH1 0x0 KECCAK256 SWAP1 PUSH1 0x1F ADD PUSH1 0x20 SWAP1 DIV DUP2 ADD SWAP3 DUP3 PUSH2 0x1B90 JUMPI PUSH1 0x0 DUP6 SSTORE PUSH2 0x1BD6 JUMP JUMPDEST DUP3 PUSH1 0x1F LT PUSH2 0x1BA9 JUMPI DUP1 MLOAD PUSH1 0xFF NOT AND DUP4 DUP1 ADD OR DUP6 SSTORE PUSH2 0x1BD6 JUMP JUMPDEST DUP3 DUP1 ADD PUSH1 0x1 ADD DUP6 SSTORE DUP3 ISZERO PUSH2 0x1BD6 JUMPI SWAP2 DUP3 ADD JUMPDEST DUP3 DUP2 GT ISZERO PUSH2 0x1BD6 JUMPI DUP3 MLOAD DUP3 SSTORE SWAP2 PUSH1 0x20 ADD SWAP2 SWAP1 PUSH1 0x1 ADD SWAP1 PUSH2 0x1BBB JUMP JUMPDEST POP PUSH2 0x1BE2 SWAP3 SWAP2 POP PUSH2 0x1BE6 JUMP JUMPDEST POP SWAP1 JUMP JUMPDEST JUMPDEST DUP1 DUP3 GT ISZERO PUSH2 0x1BE2 JUMPI PUSH1 0x0 DUP2 SSTORE PUSH1 0x1 ADD PUSH2 0x1BE7 JUMP JUMPDEST PUSH1 0x1 PUSH1 0x1 PUSH1 0xE0 SHL SUB NOT DUP2 AND DUP2 EQ PUSH2 0xA55 JUMPI PUSH1 0x0 DUP1 REVERT JUMPDEST PUSH1 0x0 PUSH1 0x20 DUP3 DUP5 SUB SLT ISZERO PUSH2 0x1C23 JUMPI PUSH1 0x0 DUP1 REVERT JUMPDEST DUP2 CALLDATALOAD PUSH2 0x113A DUP2 PUSH2 0x1BFB JUMP JUMPDEST PUSH1 0x0 JUMPDEST DUP4 DUP2 LT ISZERO PUSH2 0x1C49 JUMPI DUP2 DUP2 ADD MLOAD DUP4 DUP3 ADD MSTORE PUSH1 0x20 ADD PUSH2 0x1C31 JUMP JUMPDEST DUP4 DUP2 GT ISZERO PUSH2 0xFB7 JUMPI POP POP PUSH1 0x0 SWAP2 ADD MSTORE JUMP JUMPDEST PUSH1 0x0 DUP2 MLOAD DUP1 DUP5 MSTORE PUSH2 0x1C72 DUP2 PUSH1 0x20 DUP7 ADD PUSH1 0x20 DUP7 ADD PUSH2 0x1C2E JUMP JUMPDEST PUSH1 0x1F ADD PUSH1 0x1F NOT AND SWAP3 SWAP1 SWAP3 ADD PUSH1 0x20 ADD SWAP3 SWAP2 POP POP JUMP JUMPDEST PUSH1 0x20 DUP2 MSTORE PUSH1 0x0 PUSH2 0x113A PUSH1 0x20 DUP4 ADD DUP5 PUSH2 0x1C5A JUMP JUMPDEST PUSH1 0x0 PUSH1 0x20 DUP3 DUP5 SUB SLT ISZERO PUSH2 0x1CAB JUMPI PUSH1 0x0 DUP1 REVERT JUMPDEST POP CALLDATALOAD SWAP2 SWAP1 POP JUMP JUMPDEST DUP1 CALLDATALOAD PUSH1 0x1 PUSH1 0x1 PUSH1 0xA0 SHL SUB DUP2 AND DUP2 EQ PUSH2 0x1CC9 JUMPI PUSH1 0x0 DUP1 REVERT JUMPDEST SWAP2 SWAP1 POP JUMP JUMPDEST PUSH1 0x0 DUP1 PUSH1 0x40 DUP4 DUP6 SUB SLT ISZERO PUSH2 0x1CE1 JUMPI PUSH1 0x0 DUP1 REVERT JUMPDEST PUSH2 0x1CEA DUP4 PUSH2 0x1CB2 JUMP JUMPDEST SWAP5 PUSH1 0x20 SWAP4 SWAP1 SWAP4 ADD CALLDATALOAD SWAP4 POP POP POP JUMP JUMPDEST PUSH4 0x4E487B71 PUSH1 0xE0 SHL PUSH1 0x0 MSTORE PUSH1 0x41 PUSH1 0x4 MSTORE PUSH1 0x24 PUSH1 0x0 REVERT JUMPDEST PUSH1 0x0 PUSH8 0xFFFFFFFFFFFFFFFF DUP1 DUP5 GT ISZERO PUSH2 0x1D29 JUMPI PUSH2 0x1D29 PUSH2 0x1CF8 JUMP JUMPDEST PUSH1 0x40 MLOAD PUSH1 0x1F DUP6 ADD PUSH1 0x1F NOT SWAP1 DUP2 AND PUSH1 0x3F ADD AND DUP2 ADD SWAP1 DUP3 DUP3 GT DUP2 DUP4 LT OR ISZERO PUSH2 0x1D51 JUMPI PUSH2 0x1D51 PUSH2 0x1CF8 JUMP JUMPDEST DUP2 PUSH1 0x40 MSTORE DUP1 SWAP4 POP DUP6 DUP2 MSTORE DUP7 DUP7 DUP7 ADD GT ISZERO PUSH2 0x1D6A JUMPI PUSH1 0x0 DUP1 REVERT JUMPDEST DUP6 DUP6 PUSH1 0x20 DUP4 ADD CALLDATACOPY PUSH1 0x0 PUSH1 0x20 DUP8 DUP4 ADD ADD MSTORE POP POP POP SWAP4 SWAP3 POP POP POP JUMP JUMPDEST PUSH1 0x0 PUSH1 0x20 DUP3 DUP5 SUB SLT ISZERO PUSH2 0x1D96 JUMPI PUSH1 0x0 DUP1 REVERT JUMPDEST DUP2 CALLDATALOAD PUSH8 0xFFFFFFFFFFFFFFFF DUP2 GT ISZERO PUSH2 0x1DAD JUMPI PUSH1 0x0 DUP1 REVERT JUMPDEST DUP3 ADD PUSH1 0x1F DUP2 ADD DUP5 SGT PUSH2 0x1DBE JUMPI PUSH1 0x0 DUP1 REVERT JUMPDEST PUSH2 0x1460 DUP5 DUP3 CALLDATALOAD PUSH1 0x20 DUP5 ADD PUSH2 0x1D0E JUMP JUMPDEST DUP1 CALLDATALOAD DUP1 ISZERO ISZERO DUP2 EQ PUSH2 0x1CC9 JUMPI PUSH1 0x0 DUP1 REVERT JUMPDEST PUSH1 0x0 PUSH1 0x20 DUP3 DUP5 SUB SLT ISZERO PUSH2 0x1DEF JUMPI PUSH1 0x0 DUP1 REVERT JUMPDEST PUSH2 0x113A DUP3 PUSH2 0x1DCD JUMP JUMPDEST PUSH1 0x0 DUP1 PUSH1 0x0 PUSH1 0x60 DUP5 DUP7 SUB SLT ISZERO PUSH2 0x1E0D JUMPI PUSH1 0x0 DUP1 REVERT JUMPDEST PUSH2 0x1E16 DUP5 PUSH2 0x1CB2 JUMP JUMPDEST SWAP3 POP PUSH2 0x1E24 PUSH1 0x20 DUP6 ADD PUSH2 0x1CB2 JUMP JUMPDEST SWAP2 POP PUSH1 0x40 DUP5 ADD CALLDATALOAD SWAP1 POP SWAP3 POP SWAP3 POP SWAP3 JUMP JUMPDEST PUSH1 0x0 PUSH1 0x20 DUP3 DUP5 SUB SLT ISZERO PUSH2 0x1E46 JUMPI PUSH1 0x0 DUP1 REVERT JUMPDEST PUSH2 0x113A DUP3 PUSH2 0x1CB2 JUMP JUMPDEST PUSH1 0x20 DUP1 DUP3 MSTORE DUP3 MLOAD DUP3 DUP3 ADD DUP2 SWAP1 MSTORE PUSH1 0x0 SWAP2 SWAP1 DUP5 DUP3 ADD SWAP1 PUSH1 0x40 DUP6 ADD SWAP1 DUP5 JUMPDEST DUP2 DUP2 LT ISZERO PUSH2 0x1E87 JUMPI DUP4 MLOAD DUP4 MSTORE SWAP3 DUP5 ADD SWAP3 SWAP2 DUP5 ADD SWAP2 PUSH1 0x1 ADD PUSH2 0x1E6B JUMP JUMPDEST POP SWAP1 SWAP7 SWAP6 POP POP POP POP POP POP JUMP JUMPDEST PUSH1 0x0 DUP1 PUSH1 0x40 DUP4 DUP6 SUB SLT ISZERO PUSH2 0x1EA6 JUMPI PUSH1 0x0 DUP1 REVERT JUMPDEST PUSH2 0x1EAF DUP4 PUSH2 0x1CB2 JUMP JUMPDEST SWAP2 POP PUSH2 0x1EBD PUSH1 0x20 DUP5 ADD PUSH2 0x1DCD JUMP JUMPDEST SWAP1 POP SWAP3 POP SWAP3 SWAP1 POP JUMP JUMPDEST PUSH1 0x0 DUP1 PUSH1 0x0 DUP1 PUSH1 0x80 DUP6 DUP8 SUB SLT ISZERO PUSH2 0x1EDC JUMPI PUSH1 0x0 DUP1 REVERT JUMPDEST PUSH2 0x1EE5 DUP6 PUSH2 0x1CB2 JUMP JUMPDEST SWAP4 POP PUSH2 0x1EF3 PUSH1 0x20 DUP7 ADD PUSH2 0x1CB2 JUMP JUMPDEST SWAP3 POP PUSH1 0x40 DUP6 ADD CALLDATALOAD SWAP2 POP PUSH1 0x60 DUP6 ADD CALLDATALOAD PUSH8 0xFFFFFFFFFFFFFFFF DUP2 GT ISZERO PUSH2 0x1F16 JUMPI PUSH1 0x0 DUP1 REVERT JUMPDEST DUP6 ADD PUSH1 0x1F DUP2 ADD DUP8 SGT PUSH2 0x1F27 JUMPI PUSH1 0x0 DUP1 REVERT JUMPDEST PUSH2 0x1F36 DUP8 DUP3 CALLDATALOAD PUSH1 0x20 DUP5 ADD PUSH2 0x1D0E JUMP JUMPDEST SWAP2 POP POP SWAP3 SWAP6 SWAP2 SWAP5 POP SWAP3 POP JUMP JUMPDEST PUSH1 0x0 DUP1 PUSH1 0x40 DUP4 DUP6 SUB SLT ISZERO PUSH2 0x1F55 JUMPI PUSH1 0x0 DUP1 REVERT JUMPDEST PUSH2 0x1F5E DUP4 PUSH2 0x1CB2 JUMP JUMPDEST SWAP2 POP PUSH2 0x1EBD PUSH1 0x20 DUP5 ADD PUSH2 0x1CB2 JUMP JUMPDEST PUSH1 0x0 DUP1 PUSH1 0x40 DUP4 DUP6 SUB SLT ISZERO PUSH2 0x1F7F JUMPI PUSH1 0x0 DUP1 REVERT JUMPDEST DUP3 CALLDATALOAD SWAP2 POP PUSH2 0x1EBD PUSH1 0x20 DUP5 ADD PUSH2 0x1CB2 JUMP JUMPDEST PUSH1 0x1 DUP2 DUP2 SHR SWAP1 DUP3 AND DUP1 PUSH2 0x1FA3 JUMPI PUSH1 0x7F DUP3 AND SWAP2 POP JUMPDEST PUSH1 0x20 DUP3 LT DUP2 SUB PUSH2 0x1FC3 JUMPI PUSH4 0x4E487B71 PUSH1 0xE0 SHL PUSH1 0x0 MSTORE PUSH1 0x22 PUSH1 0x4 MSTORE PUSH1 0x24 PUSH1 0x0 REVERT JUMPDEST POP SWAP2 SWAP1 POP JUMP JUMPDEST PUSH1 0x20 DUP1 DUP3 MSTORE DUP2 DUP2 ADD MSTORE PUSH32 0x4F776E61626C653A2063616C6C6572206973206E6F7420746865206F776E6572 PUSH1 0x40 DUP3 ADD MSTORE PUSH1 0x60 ADD SWAP1 JUMP JUMPDEST PUSH1 0x20 DUP1 DUP3 MSTORE PUSH1 0x31 SWAP1 DUP3 ADD MSTORE PUSH32 0x4552433732313A207472616E736665722063616C6C6572206973206E6F74206F PUSH1 0x40 DUP3 ADD MSTORE PUSH17 0x1DDB995C881B9BDC88185C1C1C9BDD9959 PUSH1 0x7A SHL PUSH1 0x60 DUP3 ADD MSTORE PUSH1 0x80 ADD SWAP1 JUMP JUMPDEST PUSH4 0x4E487B71 PUSH1 0xE0 SHL PUSH1 0x0 MSTORE PUSH1 0x32 PUSH1 0x4 MSTORE PUSH1 0x24 PUSH1 0x0 REVERT JUMPDEST PUSH4 0x4E487B71 PUSH1 0xE0 SHL PUSH1 0x0 MSTORE PUSH1 0x11 PUSH1 0x4 MSTORE PUSH1 0x24 PUSH1 0x0 REVERT JUMPDEST PUSH1 0x0 PUSH1 0x1 DUP3 ADD PUSH2 0x208D JUMPI PUSH2 0x208D PUSH2 0x2065 JUMP JUMPDEST POP PUSH1 0x1 ADD SWAP1 JUMP JUMPDEST PUSH1 0x0 DUP3 NOT DUP3 GT ISZERO PUSH2 0x20A7 JUMPI PUSH2 0x20A7 PUSH2 0x2065 JUMP JUMPDEST POP ADD SWAP1 JUMP JUMPDEST PUSH1 0x0 DUP2 PUSH1 0x0 NOT DIV DUP4 GT DUP3 ISZERO ISZERO AND ISZERO PUSH2 0x20C6 JUMPI PUSH2 0x20C6 PUSH2 0x2065 JUMP JUMPDEST POP MUL SWAP1 JUMP JUMPDEST PUSH1 0x0 DUP5 MLOAD PUSH1 0x20 PUSH2 0x20DE DUP3 DUP6 DUP4 DUP11 ADD PUSH2 0x1C2E JUMP JUMPDEST DUP6 MLOAD SWAP2 DUP5 ADD SWAP2 PUSH2 0x20F1 DUP2 DUP5 DUP5 DUP11 ADD PUSH2 0x1C2E JUMP JUMPDEST DUP6 SLOAD SWAP3 ADD SWAP2 PUSH1 0x0 SWAP1 PUSH1 0x1 DUP2 DUP2 SHR SWAP1 DUP1 DUP4 AND DUP1 PUSH2 0x210E JUMPI PUSH1 0x7F DUP4 AND SWAP3 POP JUMPDEST DUP6 DUP4 LT DUP2 SUB PUSH2 0x212B JUMPI PUSH4 0x4E487B71 PUSH1 0xE0 SHL DUP6 MSTORE PUSH1 0x22 PUSH1 0x4 MSTORE PUSH1 0x24 DUP6 REVERT JUMPDEST DUP1 DUP1 ISZERO PUSH2 0x213F JUMPI PUSH1 0x1 DUP2 EQ PUSH2 0x2150 JUMPI PUSH2 0x217D JUMP JUMPDEST PUSH1 0xFF NOT DUP6 AND DUP9 MSTORE DUP4 DUP9 ADD SWAP6 POP PUSH2 0x217D JUMP JUMPDEST PUSH1 0x0 DUP12 DUP2 MSTORE PUSH1 0x20 SWAP1 KECCAK256 PUSH1 0x0 JUMPDEST DUP6 DUP2 LT ISZERO PUSH2 0x2175 JUMPI DUP2 SLOAD DUP11 DUP3 ADD MSTORE SWAP1 DUP5 ADD SWAP1 DUP9 ADD PUSH2 0x215C JUMP JUMPDEST POP POP DUP4 DUP9 ADD SWAP6 POP JUMPDEST POP SWAP4 SWAP12 SWAP11 POP POP POP POP POP POP POP POP POP POP POP JUMP JUMPDEST PUSH1 0x0 DUP3 DUP3 LT ISZERO PUSH2 0x21A0 JUMPI PUSH2 0x21A0 PUSH2 0x2065 JUMP JUMPDEST POP SUB SWAP1 JUMP JUMPDEST PUSH1 0x20 DUP1 DUP3 MSTORE PUSH1 0x32 SWAP1 DUP3 ADD MSTORE PUSH32 0x4552433732313A207472616E7366657220746F206E6F6E204552433732315265 PUSH1 0x40 DUP3 ADD MSTORE PUSH18 0x31B2B4BB32B91034B6B83632B6B2B73A32B9 PUSH1 0x71 SHL PUSH1 0x60 DUP3 ADD MSTORE PUSH1 0x80 ADD SWAP1 JUMP JUMPDEST PUSH4 0x4E487B71 PUSH1 0xE0 SHL PUSH1 0x0 MSTORE PUSH1 0x12 PUSH1 0x4 MSTORE PUSH1 0x24 PUSH1 0x0 REVERT JUMPDEST PUSH1 0x0 DUP3 PUSH2 0x221C JUMPI PUSH2 0x221C PUSH2 0x21F7 JUMP JUMPDEST POP DIV SWAP1 JUMP JUMPDEST PUSH1 0x0 DUP3 PUSH2 0x2230 JUMPI PUSH2 0x2230 PUSH2 0x21F7 JUMP JUMPDEST POP MOD SWAP1 JUMP JUMPDEST PUSH1 0x1 PUSH1 0x1 PUSH1 0xA0 SHL SUB DUP6 DUP2 AND DUP3 MSTORE DUP5 AND PUSH1 0x20 DUP3 ADD MSTORE PUSH1 0x40 DUP2 ADD DUP4 SWAP1 MSTORE PUSH1 0x80 PUSH1 0x60 DUP3 ADD DUP2 SWAP1 MSTORE PUSH1 0x0 SWAP1 PUSH2 0x2268 SWAP1 DUP4 ADD DUP5 PUSH2 0x1C5A JUMP JUMPDEST SWAP7 SWAP6 POP POP POP POP POP POP JUMP JUMPDEST PUSH1 0x0 PUSH1 0x20 DUP3 DUP5 SUB SLT ISZERO PUSH2 0x2284 JUMPI PUSH1 0x0 DUP1 REVERT JUMPDEST DUP2 MLOAD PUSH2 0x113A DUP2 PUSH2 0x1BFB JUMP INVALID LOG2 PUSH5 0x6970667358 0x22 SLT KECCAK256 PUSH14 0x611B1E7A4F911E3D5973336DDEFA 0xEE 0xCA SWAP7 0xD9 0xDF PUSH3 0xE2754E 0x1F SWAP14 SSTORE 0xDB SWAP15 0xF7 SLOAD 0xBF PUSH5 0x736F6C6343 STOP ADDMOD 0xD STOP CALLER ",
  "sha1": "4819576dd97af296bd47ae644664c4c463eaaf40",
  "source": "// SPDX-License-Identifier: MIT\npragma solidity >=0.7.0 <0.9.0;\n\nimport \"./libraries.sol\";\n\n\ncontract NFTProva3 is ERC721, Ownable {\n  using Strings for uint256;                                                                    //this contract should use all the dependencies\n  using Counters for Counters.Counter;                                                          //from the contract libraries.\n                                                                                                //Strings and counters are renamings.\n  Counters.Counter private supply;                                                              //i declare a private variable that will store\n                                                                                                //the supply of NFTs.\n\n  uint256 private currentToken = 1;\n  //string public uriPrefix = \"\";                                                                 //variable that stores the prefi of our URI\n  string public uriSuffix = \".json\";                                                            //variable that stores the suffix of our URI\n  string public hiddenMetadataUri = \"https://ipfs.io/ipfs/QmPvfCxLZ1sEyw9VHz4YgFQPpYqWvJkxCgQUFr5QCc5UEU?filename5.json\";                                                              //variable that store the URI of the hiddend\n                                                                                                //metadata.\n  uint256 public cost = 0.01 ether;                                                             //the cost set for our NFTs\n  uint256 public maxSupply = 500;                                                               //the number of maxible NFT that are avaiable\n  uint256 public maxMintAmountPerTx = 5;                                                        //the max number of NFT we can mint in one \n                                                                                                //transaction.\n  mapping(uint256 => string) _uris;\n  bool public paused = true;                                                                    //it allows us to set if the NFTs can be minted\n                                                                                                //or no.\n  bool public revealed = false;                                                                 //variable tha tsets the state of the revealing.\n\n  constructor() ERC721(\"Shaman\", \"SHMN\") {                                                      //constructor of our token, it accepts 2 parameters\n    setHiddenMetadataUri(\"\");//a name and a symbol.\n  }                                                                                             //i set the hidden metadata uri.\n\n  modifier mintCompliance(uint256 _mintAmount) {                                                //this modifier checks if the number of minted\n    require(_mintAmount > 0 && _mintAmount <= maxMintAmountPerTx, \"Invalid mint amount!\");      //NFT is higher than the max supply or higher\n    require(supply.current() + _mintAmount <= maxSupply, \"Max supply exceeded!\");               //than the maximum number of mint per transaction\n    _;                                                                                          //this code is executed before the implementer \n  } \n\n  function totalSupply() public view returns (uint256) {                                        //this function allows us to retrieve the total\n    return supply.current();                                                                    //supply of minted nft.\n  }\n                                                                                                //this function uses the modifier mintCompliance\n  function mint(uint256 _mintAmount) public payable mintCompliance(_mintAmount) {                       //this function allows us to mint an nft.\n    require(!paused, \"The contract is paused!\");                                                //we have to specify how many NFTs we want to\n    require(msg.value >= cost * _mintAmount, \"Insufficient funds!\");                            //mint with this transaction. if the contract\n                                                                                                //is on pause, we cannot mint. same if we don't\n    _mintLoop(msg.sender, _mintAmount);                                                         //have enough funds.\n\n  }                                                                                             //we mint all the NFTs the user declared.\n  \n  function mintForAddress(uint256 _mintAmount, address _receiver) public mintCompliance(_mintAmount) onlyOwner {//this allows us to mint for an\n    _mintLoop(_receiver, _mintAmount);                                                          //address we specify. it calls _mintLoop.\n  }\n\n  function walletOfOwner(address _owner)                                                        //this function allows us to show the wallet of\n    public                                                                                      //an address. it returns an array of the owned\n    view                                                                                        //tokens of the specified address.\n    returns (uint256[] memory)                                                                  \n  {\n    uint256 ownerTokenCount = balanceOf(_owner);                                                //the number of tokens is given by the owner's\n    uint256[] memory ownedTokenIds = new uint256[](ownerTokenCount);                            //balance. the array size is gonna be the same\n    uint256 currentTokenId = 1;                                                                 //as the number of tokens owned.\n    uint256 ownedTokenIndex = 0;                                                                //we have now to variables: one keeps track of\n                                                                                                //the iterations we did; the other the tokenId\n                                                                                                //we are considering.\n    while (ownedTokenIndex < ownerTokenCount && currentTokenId <= maxSupply) {                  //while the token index is lower than the number\n                                                                                                //of maximum token owned, and the tokenId is \n                                                                                                //lower than the total supply of the tokens:\n      address currentTokenOwner = ownerOf(currentTokenId);                                      //the address of the current token is given\n                                                                                                //by the function ownerOf.\n      if (currentTokenOwner == _owner) {                                                        //if the owner we found is the same as the owner\n        ownedTokenIds[ownedTokenIndex] = currentTokenId;                                        //we are considering, we add to the array the Id\n                                                                                                //of the tokeen found.\n        ownedTokenIndex++;                                                                      //we increment the index of the array.\n      }\n\n      currentTokenId++;                                                                         //we increment the iteration variable\n    }\n\n    return ownedTokenIds;                                                                       //we return the array with all the Ids.\n  }\n\n  function tokenURI(uint256 _tokenId)                                                           //this function allows us to reveal our NFTs\n    public                                                                                      //the revealing it's allowed only if the variable\n    view                                                                                        //revealed is set to true.\n    virtual                                                                                     //if that is not the case, it returns the hidden\n    override                                                                                    //metadata URI.\n    returns (string memory)                                                                     //It also requires that the token we are looking\n  {\n    require(                                                                                    //for exists. if not we return an errore message\n      _exists(_tokenId),                                                                        \n      \"ERC721Metadata: URI query for nonexistent token\"                                         \n    );\n\n    if (revealed == false) {                                                                    //here we controll the revealed variable.\n      return hiddenMetadataUri;                                                                 //the return statment in case it is not revealed\n    }\n\n    string memory currentBaseURI = _baseURI();                                           //we create our URI with the base URI\n    return bytes(currentBaseURI).length > 0                                                     //and we add things only if the baseURI has \n        ? string(abi.encodePacked(currentBaseURI, _tokenId.toString(), uriSuffix))              //a length bigger than 0.\n        : \"\";\n  }\n\n  function setRevealed(bool _state) public onlyOwner {                                          //this function can be called only by the owner\n    revealed = _state;                                                                          //of the contract. it allows to set the reveal\n  }                                                                                             //state variable to true or false.\n\n  function setCost(uint256 _cost) public onlyOwner {                                            //this function can be called only by the owner\n    cost = _cost;                                                                               //and it allows to set the cost of the NFTs.\n  }\n\n  function setMaxMintAmountPerTx(uint256 _maxMintAmountPerTx) public onlyOwner {                //this function can be called only by the owner\n    maxMintAmountPerTx = _maxMintAmountPerTx;                                                   //and it allows to set the maximum number of NFT\n  }                                                                                             //that can be minted in a transaction.\n\n  function setHiddenMetadataUri(string memory _hiddenMetadataUri) public onlyOwner {            //this fuction can be called only by the owner\n    hiddenMetadataUri = _hiddenMetadataUri;                                                     //and it allows to set the URI of the hidden\n  }                                                                                             //metadata.\n\n  function setUriPrefix(string memory _uriPrefix) public onlyOwner {                            //this function can be called only by the owner\n    _uris[currentToken] = _uriPrefix;                                                           //and it allows to set the URI prefix.\n  }\n\n  function setUriSuffix(string memory _uriSuffix) public onlyOwner {                            //this function can be called only by the owner\n    uriSuffix = _uriSuffix;                                                                     //and it allows to set the URI sufix.\n  }\n\n  function setPaused(bool _state) public onlyOwner {                                            //this function can be called only by the owner\n    paused = _state;                                                                            //and it allows to change the state of the contract\n  }\n\n  function withdraw() public onlyOwner {                                                        //this fuction can be called only by the owner.\n    (bool os, ) = payable(owner()).call{value: address(this).balance}(\"\");                      //it transfers the balance of the minted NFT\n    require(os);                                                                                //to the address of the owner.\n  }\n\n  function _mintLoop(address _receiver, uint256 _mintAmount) internal {                         //this function creates the minting loop of the\n    for (uint256 i = 0; i < _mintAmount; i++) {                                                 //NFTs. this allows a user to mint more NFTs \n      supply.increment();                                                                       //per transaction. it calles the _safeMint method\n      _safeMint(_receiver, supply.current());                                                   //inherited from the ERC721 contract.\n      currentToken += 1;\n    }\n  }\n\n  function _baseURI() internal view virtual override returns (string memory) {           //this function allows the user to get the \n    return _uris[currentToken];                                                                       //baseURI of our NFTs.\n  }\n}",
  "sourcePath": "contracts/contractTry2.sol",
  "type": "contract"
}